{
	"auction.sol": {
		"Auction": {
			"abi": [
				{
					"inputs": [
						{
							"internalType": "uint256",
							"name": "biddingTime",
							"type": "uint256"
						},
						{
							"internalType": "address payable",
							"name": "beneficiaryAddress",
							"type": "address"
						}
					],
					"stateMutability": "nonpayable",
					"type": "constructor"
				},
				{
					"inputs": [],
					"name": "AuctionAlreadyEnded",
					"type": "error"
				},
				{
					"inputs": [],
					"name": "AuctionEndAlreadyCalled",
					"type": "error"
				},
				{
					"inputs": [],
					"name": "AuctionNotYetEnded",
					"type": "error"
				},
				{
					"inputs": [
						{
							"internalType": "uint256",
							"name": "highestBid",
							"type": "uint256"
						}
					],
					"name": "BidNotHighEnough",
					"type": "error"
				},
				{
					"anonymous": false,
					"inputs": [
						{
							"indexed": false,
							"internalType": "address",
							"name": "winner",
							"type": "address"
						},
						{
							"indexed": false,
							"internalType": "uint256",
							"name": "amount",
							"type": "uint256"
						}
					],
					"name": "AuctionEnded",
					"type": "event"
				},
				{
					"anonymous": false,
					"inputs": [
						{
							"indexed": false,
							"internalType": "address",
							"name": "bidder",
							"type": "address"
						},
						{
							"indexed": false,
							"internalType": "uint256",
							"name": "amount",
							"type": "uint256"
						}
					],
					"name": "HighestBidIncreased",
					"type": "event"
				},
				{
					"inputs": [],
					"name": "auctionEnd",
					"outputs": [],
					"stateMutability": "nonpayable",
					"type": "function"
				},
				{
					"inputs": [],
					"name": "auctionEndTime",
					"outputs": [
						{
							"internalType": "uint256",
							"name": "",
							"type": "uint256"
						}
					],
					"stateMutability": "view",
					"type": "function"
				},
				{
					"inputs": [],
					"name": "beneficiary",
					"outputs": [
						{
							"internalType": "address payable",
							"name": "",
							"type": "address"
						}
					],
					"stateMutability": "view",
					"type": "function"
				},
				{
					"inputs": [],
					"name": "bid",
					"outputs": [],
					"stateMutability": "payable",
					"type": "function"
				},
				{
					"inputs": [],
					"name": "ended",
					"outputs": [
						{
							"internalType": "bool",
							"name": "",
							"type": "bool"
						}
					],
					"stateMutability": "view",
					"type": "function"
				},
				{
					"inputs": [],
					"name": "getRaters",
					"outputs": [
						{
							"internalType": "address[]",
							"name": "",
							"type": "address[]"
						}
					],
					"stateMutability": "view",
					"type": "function"
				},
				{
					"inputs": [],
					"name": "highestBid",
					"outputs": [
						{
							"internalType": "uint256",
							"name": "",
							"type": "uint256"
						}
					],
					"stateMutability": "view",
					"type": "function"
				},
				{
					"inputs": [],
					"name": "highestBidder",
					"outputs": [
						{
							"internalType": "address",
							"name": "",
							"type": "address"
						}
					],
					"stateMutability": "view",
					"type": "function"
				},
				{
					"inputs": [
						{
							"internalType": "uint256",
							"name": "rating",
							"type": "uint256"
						}
					],
					"name": "rate",
					"outputs": [],
					"stateMutability": "nonpayable",
					"type": "function"
				},
				{
					"inputs": [
						{
							"internalType": "uint256",
							"name": "",
							"type": "uint256"
						}
					],
					"name": "raters",
					"outputs": [
						{
							"internalType": "address",
							"name": "",
							"type": "address"
						}
					],
					"stateMutability": "view",
					"type": "function"
				},
				{
					"inputs": [
						{
							"internalType": "address",
							"name": "",
							"type": "address"
						}
					],
					"name": "ratings",
					"outputs": [
						{
							"internalType": "uint256",
							"name": "",
							"type": "uint256"
						}
					],
					"stateMutability": "view",
					"type": "function"
				},
				{
					"inputs": [],
					"name": "withdraw",
					"outputs": [
						{
							"internalType": "bool",
							"name": "",
							"type": "bool"
						}
					],
					"stateMutability": "nonpayable",
					"type": "function"
				}
			],
			"devdoc": {
				"kind": "dev",
				"methods": {},
				"version": 1
			},
			"evm": {
				"assembly": "    /* \"auction.sol\":60:5607  contract Auction {... */\n  mstore(0x40, 0x80)\n    /* \"auction.sol\":1548:1741  constructor(... */\n  callvalue\n  dup1\n  iszero\n  tag_1\n  jumpi\n  0x00\n  dup1\n  revert\ntag_1:\n  pop\n  mload(0x40)\n  sub(codesize, bytecodeSize)\n  dup1\n  bytecodeSize\n  dup4\n  codecopy\n  dup2\n  dup2\n  add\n  0x40\n  mstore\n  dup2\n  add\n  swap1\n  tag_2\n  swap2\n  swap1\n  tag_3\n  jump\t// in\ntag_2:\n    /* \"auction.sol\":1660:1678  beneficiaryAddress */\n  dup1\n    /* \"auction.sol\":1646:1657  beneficiary */\n  0x00\n  dup1\n    /* \"auction.sol\":1646:1678  beneficiary = beneficiaryAddress */\n  0x0100\n  exp\n  dup2\n  sload\n  dup2\n  0xffffffffffffffffffffffffffffffffffffffff\n  mul\n  not\n  and\n  swap1\n  dup4\n  0xffffffffffffffffffffffffffffffffffffffff\n  and\n  mul\n  or\n  swap1\n  sstore\n  pop\n    /* \"auction.sol\":1723:1734  biddingTime */\n  dup2\n    /* \"auction.sol\":1705:1720  block.timestamp */\n  timestamp\n    /* \"auction.sol\":1705:1734  block.timestamp + biddingTime */\n  tag_6\n  swap2\n  swap1\n  tag_7\n  jump\t// in\ntag_6:\n    /* \"auction.sol\":1688:1702  auctionEndTime */\n  0x03\n    /* \"auction.sol\":1688:1734  auctionEndTime = block.timestamp + biddingTime */\n  dup2\n  swap1\n  sstore\n  pop\n    /* \"auction.sol\":1548:1741  constructor(... */\n  pop\n  pop\n    /* \"auction.sol\":60:5607  contract Auction {... */\n  jump(tag_8)\n    /* \"#utility.yul\":88:205   */\ntag_10:\n    /* \"#utility.yul\":197:198   */\n  0x00\n    /* \"#utility.yul\":194:195   */\n  dup1\n    /* \"#utility.yul\":187:199   */\n  revert\n    /* \"#utility.yul\":334:411   */\ntag_12:\n    /* \"#utility.yul\":371:378   */\n  0x00\n    /* \"#utility.yul\":400:405   */\n  dup2\n    /* \"#utility.yul\":389:405   */\n  swap1\n  pop\n    /* \"#utility.yul\":334:411   */\n  swap2\n  swap1\n  pop\n  jump\t// out\n    /* \"#utility.yul\":417:539   */\ntag_13:\n    /* \"#utility.yul\":490:514   */\n  tag_26\n    /* \"#utility.yul\":508:513   */\n  dup2\n    /* \"#utility.yul\":490:514   */\n  tag_12\n  jump\t// in\ntag_26:\n    /* \"#utility.yul\":483:488   */\n  dup2\n    /* \"#utility.yul\":480:515   */\n  eq\n    /* \"#utility.yul\":470:533   */\n  tag_27\n  jumpi\n    /* \"#utility.yul\":529:530   */\n  0x00\n    /* \"#utility.yul\":526:527   */\n  dup1\n    /* \"#utility.yul\":519:531   */\n  revert\n    /* \"#utility.yul\":470:533   */\ntag_27:\n    /* \"#utility.yul\":417:539   */\n  pop\n  jump\t// out\n    /* \"#utility.yul\":545:688   */\ntag_14:\n    /* \"#utility.yul\":602:607   */\n  0x00\n    /* \"#utility.yul\":633:639   */\n  dup2\n    /* \"#utility.yul\":627:640   */\n  mload\n    /* \"#utility.yul\":618:640   */\n  swap1\n  pop\n    /* \"#utility.yul\":649:682   */\n  tag_29\n    /* \"#utility.yul\":676:681   */\n  dup2\n    /* \"#utility.yul\":649:682   */\n  tag_13\n  jump\t// in\ntag_29:\n    /* \"#utility.yul\":545:688   */\n  swap3\n  swap2\n  pop\n  pop\n  jump\t// out\n    /* \"#utility.yul\":694:820   */\ntag_15:\n    /* \"#utility.yul\":731:738   */\n  0x00\n    /* \"#utility.yul\":771:813   */\n  0xffffffffffffffffffffffffffffffffffffffff\n    /* \"#utility.yul\":764:769   */\n  dup3\n    /* \"#utility.yul\":760:814   */\n  and\n    /* \"#utility.yul\":749:814   */\n  swap1\n  pop\n    /* \"#utility.yul\":694:820   */\n  swap2\n  swap1\n  pop\n  jump\t// out\n    /* \"#utility.yul\":826:930   */\ntag_16:\n    /* \"#utility.yul\":871:878   */\n  0x00\n    /* \"#utility.yul\":900:924   */\n  tag_32\n    /* \"#utility.yul\":918:923   */\n  dup3\n    /* \"#utility.yul\":900:924   */\n  tag_15\n  jump\t// in\ntag_32:\n    /* \"#utility.yul\":889:924   */\n  swap1\n  pop\n    /* \"#utility.yul\":826:930   */\n  swap2\n  swap1\n  pop\n  jump\t// out\n    /* \"#utility.yul\":936:1074   */\ntag_17:\n    /* \"#utility.yul\":1017:1049   */\n  tag_34\n    /* \"#utility.yul\":1043:1048   */\n  dup2\n    /* \"#utility.yul\":1017:1049   */\n  tag_16\n  jump\t// in\ntag_34:\n    /* \"#utility.yul\":1010:1015   */\n  dup2\n    /* \"#utility.yul\":1007:1050   */\n  eq\n    /* \"#utility.yul\":997:1068   */\n  tag_35\n  jumpi\n    /* \"#utility.yul\":1064:1065   */\n  0x00\n    /* \"#utility.yul\":1061:1062   */\n  dup1\n    /* \"#utility.yul\":1054:1066   */\n  revert\n    /* \"#utility.yul\":997:1068   */\ntag_35:\n    /* \"#utility.yul\":936:1074   */\n  pop\n  jump\t// out\n    /* \"#utility.yul\":1080:1239   */\ntag_18:\n    /* \"#utility.yul\":1145:1150   */\n  0x00\n    /* \"#utility.yul\":1176:1182   */\n  dup2\n    /* \"#utility.yul\":1170:1183   */\n  mload\n    /* \"#utility.yul\":1161:1183   */\n  swap1\n  pop\n    /* \"#utility.yul\":1192:1233   */\n  tag_37\n    /* \"#utility.yul\":1227:1232   */\n  dup2\n    /* \"#utility.yul\":1192:1233   */\n  tag_17\n  jump\t// in\ntag_37:\n    /* \"#utility.yul\":1080:1239   */\n  swap3\n  swap2\n  pop\n  pop\n  jump\t// out\n    /* \"#utility.yul\":1245:1768   */\ntag_3:\n    /* \"#utility.yul\":1332:1338   */\n  0x00\n    /* \"#utility.yul\":1340:1346   */\n  dup1\n    /* \"#utility.yul\":1389:1391   */\n  0x40\n    /* \"#utility.yul\":1377:1386   */\n  dup4\n    /* \"#utility.yul\":1368:1375   */\n  dup6\n    /* \"#utility.yul\":1364:1387   */\n  sub\n    /* \"#utility.yul\":1360:1392   */\n  slt\n    /* \"#utility.yul\":1357:1476   */\n  iszero\n  tag_39\n  jumpi\n    /* \"#utility.yul\":1395:1474   */\n  tag_40\n  tag_10\n  jump\t// in\ntag_40:\n    /* \"#utility.yul\":1357:1476   */\ntag_39:\n    /* \"#utility.yul\":1515:1516   */\n  0x00\n    /* \"#utility.yul\":1540:1604   */\n  tag_41\n    /* \"#utility.yul\":1596:1603   */\n  dup6\n    /* \"#utility.yul\":1587:1593   */\n  dup3\n    /* \"#utility.yul\":1576:1585   */\n  dup7\n    /* \"#utility.yul\":1572:1594   */\n  add\n    /* \"#utility.yul\":1540:1604   */\n  tag_14\n  jump\t// in\ntag_41:\n    /* \"#utility.yul\":1530:1604   */\n  swap3\n  pop\n    /* \"#utility.yul\":1486:1614   */\n  pop\n    /* \"#utility.yul\":1653:1655   */\n  0x20\n    /* \"#utility.yul\":1679:1751   */\n  tag_42\n    /* \"#utility.yul\":1743:1750   */\n  dup6\n    /* \"#utility.yul\":1734:1740   */\n  dup3\n    /* \"#utility.yul\":1723:1732   */\n  dup7\n    /* \"#utility.yul\":1719:1741   */\n  add\n    /* \"#utility.yul\":1679:1751   */\n  tag_18\n  jump\t// in\ntag_42:\n    /* \"#utility.yul\":1669:1751   */\n  swap2\n  pop\n    /* \"#utility.yul\":1624:1761   */\n  pop\n    /* \"#utility.yul\":1245:1768   */\n  swap3\n  pop\n  swap3\n  swap1\n  pop\n  jump\t// out\n    /* \"#utility.yul\":1774:1954   */\ntag_19:\n    /* \"#utility.yul\":1822:1899   */\n  0x4e487b7100000000000000000000000000000000000000000000000000000000\n    /* \"#utility.yul\":1819:1820   */\n  0x00\n    /* \"#utility.yul\":1812:1900   */\n  mstore\n    /* \"#utility.yul\":1919:1923   */\n  0x11\n    /* \"#utility.yul\":1916:1917   */\n  0x04\n    /* \"#utility.yul\":1909:1924   */\n  mstore\n    /* \"#utility.yul\":1943:1947   */\n  0x24\n    /* \"#utility.yul\":1940:1941   */\n  0x00\n    /* \"#utility.yul\":1933:1948   */\n  revert\n    /* \"#utility.yul\":1960:2151   */\ntag_7:\n    /* \"#utility.yul\":2000:2003   */\n  0x00\n    /* \"#utility.yul\":2019:2039   */\n  tag_45\n    /* \"#utility.yul\":2037:2038   */\n  dup3\n    /* \"#utility.yul\":2019:2039   */\n  tag_12\n  jump\t// in\ntag_45:\n    /* \"#utility.yul\":2014:2039   */\n  swap2\n  pop\n    /* \"#utility.yul\":2053:2073   */\n  tag_46\n    /* \"#utility.yul\":2071:2072   */\n  dup4\n    /* \"#utility.yul\":2053:2073   */\n  tag_12\n  jump\t// in\ntag_46:\n    /* \"#utility.yul\":2048:2073   */\n  swap3\n  pop\n    /* \"#utility.yul\":2096:2097   */\n  dup3\n    /* \"#utility.yul\":2093:2094   */\n  dup3\n    /* \"#utility.yul\":2089:2098   */\n  add\n    /* \"#utility.yul\":2082:2098   */\n  swap1\n  pop\n    /* \"#utility.yul\":2117:2120   */\n  dup1\n    /* \"#utility.yul\":2114:2115   */\n  dup3\n    /* \"#utility.yul\":2111:2121   */\n  gt\n    /* \"#utility.yul\":2108:2144   */\n  iszero\n  tag_47\n  jumpi\n    /* \"#utility.yul\":2124:2142   */\n  tag_48\n  tag_19\n  jump\t// in\ntag_48:\n    /* \"#utility.yul\":2108:2144   */\ntag_47:\n    /* \"#utility.yul\":1960:2151   */\n  swap3\n  swap2\n  pop\n  pop\n  jump\t// out\n    /* \"auction.sol\":60:5607  contract Auction {... */\ntag_8:\n  dataSize(sub_0)\n  dup1\n  dataOffset(sub_0)\n  0x00\n  codecopy\n  0x00\n  return\nstop\n\nsub_0: assembly {\n        /* \"auction.sol\":60:5607  contract Auction {... */\n      mstore(0x40, 0x80)\n      jumpi(tag_1, lt(calldatasize, 0x04))\n      shr(0xe0, calldataload(0x00))\n      dup1\n      0x8463b38b\n      gt\n      tag_14\n      jumpi\n      dup1\n      0x8463b38b\n      eq\n      tag_8\n      jumpi\n      dup1\n      0x91f90157\n      eq\n      tag_9\n      jumpi\n      dup1\n      0x9e01dfbb\n      eq\n      tag_10\n      jumpi\n      dup1\n      0xd57bde79\n      eq\n      tag_11\n      jumpi\n      dup1\n      0xe7ee6ad6\n      eq\n      tag_12\n      jumpi\n      dup1\n      0xef9973ba\n      eq\n      tag_13\n      jumpi\n      jump(tag_1)\n    tag_14:\n      dup1\n      0x12fa6feb\n      eq\n      tag_2\n      jumpi\n      dup1\n      0x1998aeef\n      eq\n      tag_3\n      jumpi\n      dup1\n      0x2a24f46c\n      eq\n      tag_4\n      jumpi\n      dup1\n      0x38af3eed\n      eq\n      tag_5\n      jumpi\n      dup1\n      0x3ccfd60b\n      eq\n      tag_6\n      jumpi\n      dup1\n      0x4b449cba\n      eq\n      tag_7\n      jumpi\n    tag_1:\n      0x00\n      dup1\n      revert\n        /* \"auction.sol\":661:678  bool public ended */\n    tag_2:\n      callvalue\n      dup1\n      iszero\n      tag_15\n      jumpi\n      0x00\n      dup1\n      revert\n    tag_15:\n      pop\n      tag_16\n      tag_17\n      jump\t// in\n    tag_16:\n      mload(0x40)\n      tag_18\n      swap2\n      swap1\n      tag_19\n      jump\t// in\n    tag_18:\n      mload(0x40)\n      dup1\n      swap2\n      sub\n      swap1\n      return\n        /* \"auction.sol\":1909:3131  function bid() external payable {... */\n    tag_3:\n      tag_20\n      tag_21\n      jump\t// in\n    tag_20:\n      stop\n        /* \"auction.sol\":4067:5160  function auctionEnd() external {... */\n    tag_4:\n      callvalue\n      dup1\n      iszero\n      tag_22\n      jumpi\n      0x00\n      dup1\n      revert\n    tag_22:\n      pop\n      tag_23\n      tag_24\n      jump\t// in\n    tag_23:\n      stop\n        /* \"auction.sol\":228:262  address payable public beneficiary */\n    tag_5:\n      callvalue\n      dup1\n      iszero\n      tag_25\n      jumpi\n      0x00\n      dup1\n      revert\n    tag_25:\n      pop\n      tag_26\n      tag_27\n      jump\t// in\n    tag_26:\n      mload(0x40)\n      tag_28\n      swap2\n      swap1\n      tag_29\n      jump\t// in\n    tag_28:\n      mload(0x40)\n      dup1\n      swap2\n      sub\n      swap1\n      return\n        /* \"auction.sol\":3178:3984  function withdraw() external returns (bool) {... */\n    tag_6:\n      callvalue\n      dup1\n      iszero\n      tag_30\n      jumpi\n      0x00\n      dup1\n      revert\n    tag_30:\n      pop\n      tag_31\n      tag_32\n      jump\t// in\n    tag_31:\n      mload(0x40)\n      tag_33\n      swap2\n      swap1\n      tag_19\n      jump\t// in\n    tag_33:\n      mload(0x40)\n      dup1\n      swap2\n      sub\n      swap1\n      return\n        /* \"auction.sol\":343:369  uint public auctionEndTime */\n    tag_7:\n      callvalue\n      dup1\n      iszero\n      tag_34\n      jumpi\n      0x00\n      dup1\n      revert\n    tag_34:\n      pop\n      tag_35\n      tag_36\n      jump\t// in\n    tag_35:\n      mload(0x40)\n      tag_37\n      swap2\n      swap1\n      tag_38\n      jump\t// in\n    tag_37:\n      mload(0x40)\n      dup1\n      swap2\n      sub\n      swap1\n      return\n        /* \"auction.sol\":314:337  address[] public raters */\n    tag_8:\n      callvalue\n      dup1\n      iszero\n      tag_39\n      jumpi\n      0x00\n      dup1\n      revert\n    tag_39:\n      pop\n      tag_40\n      0x04\n      dup1\n      calldatasize\n      sub\n      dup2\n      add\n      swap1\n      tag_41\n      swap2\n      swap1\n      tag_42\n      jump\t// in\n    tag_41:\n      tag_43\n      jump\t// in\n    tag_40:\n      mload(0x40)\n      tag_44\n      swap2\n      swap1\n      tag_45\n      jump\t// in\n    tag_44:\n      mload(0x40)\n      dup1\n      swap2\n      sub\n      swap1\n      return\n        /* \"auction.sol\":413:441  address public highestBidder */\n    tag_9:\n      callvalue\n      dup1\n      iszero\n      tag_46\n      jumpi\n      0x00\n      dup1\n      revert\n    tag_46:\n      pop\n      tag_47\n      tag_48\n      jump\t// in\n    tag_47:\n      mload(0x40)\n      tag_49\n      swap2\n      swap1\n      tag_45\n      jump\t// in\n    tag_49:\n      mload(0x40)\n      dup1\n      swap2\n      sub\n      swap1\n      return\n        /* \"auction.sol\":269:308  mapping(address => uint) public ratings */\n    tag_10:\n      callvalue\n      dup1\n      iszero\n      tag_50\n      jumpi\n      0x00\n      dup1\n      revert\n    tag_50:\n      pop\n      tag_51\n      0x04\n      dup1\n      calldatasize\n      sub\n      dup2\n      add\n      swap1\n      tag_52\n      swap2\n      swap1\n      tag_53\n      jump\t// in\n    tag_52:\n      tag_54\n      jump\t// in\n    tag_51:\n      mload(0x40)\n      tag_55\n      swap2\n      swap1\n      tag_38\n      jump\t// in\n    tag_55:\n      mload(0x40)\n      dup1\n      swap2\n      sub\n      swap1\n      return\n        /* \"auction.sol\":447:469  uint public highestBid */\n    tag_11:\n      callvalue\n      dup1\n      iszero\n      tag_56\n      jumpi\n      0x00\n      dup1\n      revert\n    tag_56:\n      pop\n      tag_57\n      tag_58\n      jump\t// in\n    tag_57:\n      mload(0x40)\n      tag_59\n      swap2\n      swap1\n      tag_38\n      jump\t// in\n    tag_59:\n      mload(0x40)\n      dup1\n      swap2\n      sub\n      swap1\n      return\n        /* \"auction.sol\":5166:5510  function rate(uint rating) external {... */\n    tag_12:\n      callvalue\n      dup1\n      iszero\n      tag_60\n      jumpi\n      0x00\n      dup1\n      revert\n    tag_60:\n      pop\n      tag_61\n      0x04\n      dup1\n      calldatasize\n      sub\n      dup2\n      add\n      swap1\n      tag_62\n      swap2\n      swap1\n      tag_42\n      jump\t// in\n    tag_62:\n      tag_63\n      jump\t// in\n    tag_61:\n      stop\n        /* \"auction.sol\":5515:5605  function getRaters() public view returns (address[] memory) {... */\n    tag_13:\n      callvalue\n      dup1\n      iszero\n      tag_64\n      jumpi\n      0x00\n      dup1\n      revert\n    tag_64:\n      pop\n      tag_65\n      tag_66\n      jump\t// in\n    tag_65:\n      mload(0x40)\n      tag_67\n      swap2\n      swap1\n      tag_68\n      jump\t// in\n    tag_67:\n      mload(0x40)\n      dup1\n      swap2\n      sub\n      swap1\n      return\n        /* \"auction.sol\":661:678  bool public ended */\n    tag_17:\n      0x07\n      0x00\n      swap1\n      sload\n      swap1\n      0x0100\n      exp\n      swap1\n      div\n      0xff\n      and\n      dup2\n      jump\t// out\n        /* \"auction.sol\":1909:3131  function bid() external payable {... */\n    tag_21:\n        /* \"auction.sol\":2256:2270  auctionEndTime */\n      sload(0x03)\n        /* \"auction.sol\":2238:2253  block.timestamp */\n      timestamp\n        /* \"auction.sol\":2238:2270  block.timestamp > auctionEndTime */\n      gt\n        /* \"auction.sol\":2234:2312  if (block.timestamp > auctionEndTime)... */\n      iszero\n      tag_70\n      jumpi\n        /* \"auction.sol\":2291:2312  AuctionAlreadyEnded() */\n      mload(0x40)\n      0xd02e774d00000000000000000000000000000000000000000000000000000000\n      dup2\n      mstore\n      0x04\n      add\n      mload(0x40)\n      dup1\n      swap2\n      sub\n      swap1\n      revert\n        /* \"auction.sol\":2234:2312  if (block.timestamp > auctionEndTime)... */\n    tag_70:\n        /* \"auction.sol\":2555:2565  highestBid */\n      sload(0x05)\n        /* \"auction.sol\":2542:2551  msg.value */\n      callvalue\n        /* \"auction.sol\":2542:2565  msg.value <= highestBid */\n      gt\n        /* \"auction.sol\":2538:2614  if (msg.value <= highestBid)... */\n      tag_71\n      jumpi\n        /* \"auction.sol\":2603:2613  highestBid */\n      sload(0x05)\n        /* \"auction.sol\":2586:2614  BidNotHighEnough(highestBid) */\n      mload(0x40)\n      0x4e12c1bb00000000000000000000000000000000000000000000000000000000\n      dup2\n      mstore\n      0x04\n      add\n      tag_72\n      swap2\n      swap1\n      tag_38\n      jump\t// in\n    tag_72:\n      mload(0x40)\n      dup1\n      swap2\n      sub\n      swap1\n      revert\n        /* \"auction.sol\":2538:2614  if (msg.value <= highestBid)... */\n    tag_71:\n        /* \"auction.sol\":2643:2644  0 */\n      0x00\n        /* \"auction.sol\":2629:2639  highestBid */\n      sload(0x05)\n        /* \"auction.sol\":2629:2644  highestBid != 0 */\n      eq\n        /* \"auction.sol\":2625:3000  if (highestBid != 0) {... */\n      tag_73\n      jumpi\n        /* \"auction.sol\":2979:2989  highestBid */\n      sload(0x05)\n        /* \"auction.sol\":2946:2960  pendingReturns */\n      0x06\n        /* \"auction.sol\":2946:2975  pendingReturns[highestBidder] */\n      0x00\n        /* \"auction.sol\":2961:2974  highestBidder */\n      0x04\n      0x00\n      swap1\n      sload\n      swap1\n      0x0100\n      exp\n      swap1\n      div\n      0xffffffffffffffffffffffffffffffffffffffff\n      and\n        /* \"auction.sol\":2946:2975  pendingReturns[highestBidder] */\n      0xffffffffffffffffffffffffffffffffffffffff\n      and\n      0xffffffffffffffffffffffffffffffffffffffff\n      and\n      dup2\n      mstore\n      0x20\n      add\n      swap1\n      dup2\n      mstore\n      0x20\n      add\n      0x00\n      keccak256\n      0x00\n        /* \"auction.sol\":2946:2989  pendingReturns[highestBidder] += highestBid */\n      dup3\n      dup3\n      sload\n      tag_74\n      swap2\n      swap1\n      tag_75\n      jump\t// in\n    tag_74:\n      swap3\n      pop\n      pop\n      dup2\n      swap1\n      sstore\n      pop\n        /* \"auction.sol\":2625:3000  if (highestBid != 0) {... */\n    tag_73:\n        /* \"auction.sol\":3025:3035  msg.sender */\n      caller\n        /* \"auction.sol\":3009:3022  highestBidder */\n      0x04\n      0x00\n        /* \"auction.sol\":3009:3035  highestBidder = msg.sender */\n      0x0100\n      exp\n      dup2\n      sload\n      dup2\n      0xffffffffffffffffffffffffffffffffffffffff\n      mul\n      not\n      and\n      swap1\n      dup4\n      0xffffffffffffffffffffffffffffffffffffffff\n      and\n      mul\n      or\n      swap1\n      sstore\n      pop\n        /* \"auction.sol\":3058:3067  msg.value */\n      callvalue\n        /* \"auction.sol\":3045:3055  highestBid */\n      0x05\n        /* \"auction.sol\":3045:3067  highestBid = msg.value */\n      dup2\n      swap1\n      sstore\n      pop\n        /* \"auction.sol\":3082:3124  HighestBidIncreased(msg.sender, msg.value) */\n      0xf4757a49b326036464bec6fe419a4ae38c8a02ce3e68bf0809674f6aab8ad300\n        /* \"auction.sol\":3102:3112  msg.sender */\n      caller\n        /* \"auction.sol\":3114:3123  msg.value */\n      callvalue\n        /* \"auction.sol\":3082:3124  HighestBidIncreased(msg.sender, msg.value) */\n      mload(0x40)\n      tag_76\n      swap3\n      swap2\n      swap1\n      tag_77\n      jump\t// in\n    tag_76:\n      mload(0x40)\n      dup1\n      swap2\n      sub\n      swap1\n      log1\n        /* \"auction.sol\":1909:3131  function bid() external payable {... */\n      jump\t// out\n        /* \"auction.sol\":4067:5160  function auctionEnd() external {... */\n    tag_24:\n        /* \"auction.sol\":4865:4879  auctionEndTime */\n      sload(0x03)\n        /* \"auction.sol\":4847:4862  block.timestamp */\n      timestamp\n        /* \"auction.sol\":4847:4879  block.timestamp < auctionEndTime */\n      lt\n        /* \"auction.sol\":4843:4920  if (block.timestamp < auctionEndTime)... */\n      iszero\n      tag_79\n      jumpi\n        /* \"auction.sol\":4900:4920  AuctionNotYetEnded() */\n      mload(0x40)\n      0x44cee29000000000000000000000000000000000000000000000000000000000\n      dup2\n      mstore\n      0x04\n      add\n      mload(0x40)\n      dup1\n      swap2\n      sub\n      swap1\n      revert\n        /* \"auction.sol\":4843:4920  if (block.timestamp < auctionEndTime)... */\n    tag_79:\n        /* \"auction.sol\":4934:4939  ended */\n      0x07\n      0x00\n      swap1\n      sload\n      swap1\n      0x0100\n      exp\n      swap1\n      div\n      0xff\n      and\n        /* \"auction.sol\":4930:4985  if (ended)... */\n      iszero\n      tag_80\n      jumpi\n        /* \"auction.sol\":4960:4985  AuctionEndAlreadyCalled() */\n      mload(0x40)\n      0x61cfdcf800000000000000000000000000000000000000000000000000000000\n      dup2\n      mstore\n      0x04\n      add\n      mload(0x40)\n      dup1\n      swap2\n      sub\n      swap1\n      revert\n        /* \"auction.sol\":4930:4985  if (ended)... */\n    tag_80:\n        /* \"auction.sol\":5026:5030  true */\n      0x01\n        /* \"auction.sol\":5018:5023  ended */\n      0x07\n      0x00\n        /* \"auction.sol\":5018:5030  ended = true */\n      0x0100\n      exp\n      dup2\n      sload\n      dup2\n      0xff\n      mul\n      not\n      and\n      swap1\n      dup4\n      iszero\n      iszero\n      mul\n      or\n      swap1\n      sstore\n      pop\n        /* \"auction.sol\":5045:5084  AuctionEnded(highestBidder, highestBid) */\n      0xdaec4582d5d9595688c8c98545fdd1c696d41c6aeaeb636737e84ed2f5c00eda\n        /* \"auction.sol\":5058:5071  highestBidder */\n      0x04\n      0x00\n      swap1\n      sload\n      swap1\n      0x0100\n      exp\n      swap1\n      div\n      0xffffffffffffffffffffffffffffffffffffffff\n      and\n        /* \"auction.sol\":5073:5083  highestBid */\n      sload(0x05)\n        /* \"auction.sol\":5045:5084  AuctionEnded(highestBidder, highestBid) */\n      mload(0x40)\n      tag_81\n      swap3\n      swap2\n      swap1\n      tag_77\n      jump\t// in\n    tag_81:\n      mload(0x40)\n      dup1\n      swap2\n      sub\n      swap1\n      log1\n        /* \"auction.sol\":5121:5132  beneficiary */\n      0x00\n      dup1\n      sload\n      swap1\n      0x0100\n      exp\n      swap1\n      div\n      0xffffffffffffffffffffffffffffffffffffffff\n      and\n        /* \"auction.sol\":5121:5141  beneficiary.transfer */\n      0xffffffffffffffffffffffffffffffffffffffff\n      and\n        /* \"auction.sol\":5121:5153  beneficiary.transfer(highestBid) */\n      0x08fc\n        /* \"auction.sol\":5142:5152  highestBid */\n      sload(0x05)\n        /* \"auction.sol\":5121:5153  beneficiary.transfer(highestBid) */\n      swap1\n      dup2\n      iszero\n      mul\n      swap1\n      mload(0x40)\n      0x00\n      mload(0x40)\n      dup1\n      dup4\n      sub\n      dup2\n      dup6\n      dup9\n      dup9\n      call\n      swap4\n      pop\n      pop\n      pop\n      pop\n      iszero\n      dup1\n      iszero\n      tag_83\n      jumpi\n      returndatasize\n      0x00\n      dup1\n      returndatacopy\n      revert(0x00, returndatasize)\n    tag_83:\n      pop\n        /* \"auction.sol\":4067:5160  function auctionEnd() external {... */\n      jump\t// out\n        /* \"auction.sol\":228:262  address payable public beneficiary */\n    tag_27:\n      0x00\n      dup1\n      sload\n      swap1\n      0x0100\n      exp\n      swap1\n      div\n      0xffffffffffffffffffffffffffffffffffffffff\n      and\n      dup2\n      jump\t// out\n        /* \"auction.sol\":3178:3984  function withdraw() external returns (bool) {... */\n    tag_32:\n        /* \"auction.sol\":3216:3220  bool */\n      0x00\n        /* \"auction.sol\":3232:3243  uint amount */\n      dup1\n        /* \"auction.sol\":3246:3260  pendingReturns */\n      0x06\n        /* \"auction.sol\":3246:3272  pendingReturns[msg.sender] */\n      0x00\n        /* \"auction.sol\":3261:3271  msg.sender */\n      caller\n        /* \"auction.sol\":3246:3272  pendingReturns[msg.sender] */\n      0xffffffffffffffffffffffffffffffffffffffff\n      and\n      0xffffffffffffffffffffffffffffffffffffffff\n      and\n      dup2\n      mstore\n      0x20\n      add\n      swap1\n      dup2\n      mstore\n      0x20\n      add\n      0x00\n      keccak256\n      sload\n        /* \"auction.sol\":3232:3272  uint amount = pendingReturns[msg.sender] */\n      swap1\n      pop\n        /* \"auction.sol\":3295:3296  0 */\n      0x00\n        /* \"auction.sol\":3286:3292  amount */\n      dup2\n        /* \"auction.sol\":3286:3296  amount > 0 */\n      gt\n        /* \"auction.sol\":3282:3957  if (amount > 0) {... */\n      iszero\n      tag_85\n      jumpi\n        /* \"auction.sol\":3526:3527  0 */\n      0x00\n        /* \"auction.sol\":3497:3511  pendingReturns */\n      0x06\n        /* \"auction.sol\":3497:3523  pendingReturns[msg.sender] */\n      0x00\n        /* \"auction.sol\":3512:3522  msg.sender */\n      caller\n        /* \"auction.sol\":3497:3523  pendingReturns[msg.sender] */\n      0xffffffffffffffffffffffffffffffffffffffff\n      and\n      0xffffffffffffffffffffffffffffffffffffffff\n      and\n      dup2\n      mstore\n      0x20\n      add\n      swap1\n      dup2\n      mstore\n      0x20\n      add\n      0x00\n      keccak256\n        /* \"auction.sol\":3497:3527  pendingReturns[msg.sender] = 0 */\n      dup2\n      swap1\n      sstore\n      pop\n        /* \"auction.sol\":3748:3758  msg.sender */\n      caller\n        /* \"auction.sol\":3740:3764  payable(msg.sender).send */\n      0xffffffffffffffffffffffffffffffffffffffff\n      and\n        /* \"auction.sol\":3740:3772  payable(msg.sender).send(amount) */\n      0x08fc\n        /* \"auction.sol\":3765:3771  amount */\n      dup3\n        /* \"auction.sol\":3740:3772  payable(msg.sender).send(amount) */\n      swap1\n      dup2\n      iszero\n      mul\n      swap1\n      mload(0x40)\n      0x00\n      mload(0x40)\n      dup1\n      dup4\n      sub\n      dup2\n      dup6\n      dup9\n      dup9\n      call\n      swap4\n      pop\n      pop\n      pop\n      pop\n        /* \"auction.sol\":3735:3947  if (!payable(msg.sender).send(amount)) {... */\n      tag_87\n      jumpi\n        /* \"auction.sol\":3896:3902  amount */\n      dup1\n        /* \"auction.sol\":3867:3881  pendingReturns */\n      0x06\n        /* \"auction.sol\":3867:3893  pendingReturns[msg.sender] */\n      0x00\n        /* \"auction.sol\":3882:3892  msg.sender */\n      caller\n        /* \"auction.sol\":3867:3893  pendingReturns[msg.sender] */\n      0xffffffffffffffffffffffffffffffffffffffff\n      and\n      0xffffffffffffffffffffffffffffffffffffffff\n      and\n      dup2\n      mstore\n      0x20\n      add\n      swap1\n      dup2\n      mstore\n      0x20\n      add\n      0x00\n      keccak256\n        /* \"auction.sol\":3867:3902  pendingReturns[msg.sender] = amount */\n      dup2\n      swap1\n      sstore\n      pop\n        /* \"auction.sol\":3927:3932  false */\n      0x00\n        /* \"auction.sol\":3920:3932  return false */\n      swap2\n      pop\n      pop\n      jump(tag_84)\n        /* \"auction.sol\":3735:3947  if (!payable(msg.sender).send(amount)) {... */\n    tag_87:\n        /* \"auction.sol\":3282:3957  if (amount > 0) {... */\n    tag_85:\n        /* \"auction.sol\":3973:3977  true */\n      0x01\n        /* \"auction.sol\":3966:3977  return true */\n      swap2\n      pop\n      pop\n        /* \"auction.sol\":3178:3984  function withdraw() external returns (bool) {... */\n    tag_84:\n      swap1\n      jump\t// out\n        /* \"auction.sol\":343:369  uint public auctionEndTime */\n    tag_36:\n      sload(0x03)\n      dup2\n      jump\t// out\n        /* \"auction.sol\":314:337  address[] public raters */\n    tag_43:\n      0x02\n      dup2\n      dup2\n      sload\n      dup2\n      lt\n      tag_88\n      jumpi\n      0x00\n      dup1\n      revert\n    tag_88:\n      swap1\n      0x00\n      mstore\n      keccak256(0x00, 0x20)\n      add\n      0x00\n      swap2\n      pop\n      sload\n      swap1\n      0x0100\n      exp\n      swap1\n      div\n      0xffffffffffffffffffffffffffffffffffffffff\n      and\n      dup2\n      jump\t// out\n        /* \"auction.sol\":413:441  address public highestBidder */\n    tag_48:\n      0x04\n      0x00\n      swap1\n      sload\n      swap1\n      0x0100\n      exp\n      swap1\n      div\n      0xffffffffffffffffffffffffffffffffffffffff\n      and\n      dup2\n      jump\t// out\n        /* \"auction.sol\":269:308  mapping(address => uint) public ratings */\n    tag_54:\n      mstore(0x20, 0x01)\n      dup1\n      0x00\n      mstore\n      keccak256(0x00, 0x40)\n      0x00\n      swap2\n      pop\n      swap1\n      pop\n      sload\n      dup2\n      jump\t// out\n        /* \"auction.sol\":447:469  uint public highestBid */\n    tag_58:\n      sload(0x05)\n      dup2\n      jump\t// out\n        /* \"auction.sol\":5166:5510  function rate(uint rating) external {... */\n    tag_63:\n        /* \"auction.sol\":5229:5230  0 */\n      0x00\n        /* \"auction.sol\":5220:5226  rating */\n      dup2\n        /* \"auction.sol\":5220:5230  rating > 0 */\n      gt\n        /* \"auction.sol\":5220:5245  rating > 0 && rating <= 5 */\n      dup1\n      iszero\n      tag_91\n      jumpi\n      pop\n        /* \"auction.sol\":5244:5245  5 */\n      0x05\n        /* \"auction.sol\":5234:5240  rating */\n      dup2\n        /* \"auction.sol\":5234:5245  rating <= 5 */\n      gt\n      iszero\n        /* \"auction.sol\":5220:5245  rating > 0 && rating <= 5 */\n    tag_91:\n        /* \"auction.sol\":5212:5277  require(rating > 0 && rating <= 5, \"Rating must be from 1 to 5.\") */\n      tag_92\n      jumpi\n      mload(0x40)\n      0x08c379a000000000000000000000000000000000000000000000000000000000\n      dup2\n      mstore\n      0x04\n      add\n      tag_93\n      swap1\n      tag_94\n      jump\t// in\n    tag_93:\n      mload(0x40)\n      dup1\n      swap2\n      sub\n      swap1\n      revert\n    tag_92:\n        /* \"auction.sol\":5325:5326  0 */\n      0x00\n        /* \"auction.sol\":5295:5309  pendingReturns */\n      0x06\n        /* \"auction.sol\":5295:5321  pendingReturns[msg.sender] */\n      0x00\n        /* \"auction.sol\":5310:5320  msg.sender */\n      caller\n        /* \"auction.sol\":5295:5321  pendingReturns[msg.sender] */\n      0xffffffffffffffffffffffffffffffffffffffff\n      and\n      0xffffffffffffffffffffffffffffffffffffffff\n      and\n      dup2\n      mstore\n      0x20\n      add\n      swap1\n      dup2\n      mstore\n      0x20\n      add\n      0x00\n      keccak256\n      sload\n        /* \"auction.sol\":5295:5326  pendingReturns[msg.sender] != 0 */\n      sub\n        /* \"auction.sol\":5287:5376  require(pendingReturns[msg.sender] != 0, \"You can rate only if you have previously bid.\") */\n      tag_95\n      jumpi\n      mload(0x40)\n      0x08c379a000000000000000000000000000000000000000000000000000000000\n      dup2\n      mstore\n      0x04\n      add\n      tag_96\n      swap1\n      tag_97\n      jump\t// in\n    tag_96:\n      mload(0x40)\n      dup1\n      swap2\n      sub\n      swap1\n      revert\n    tag_95:\n        /* \"auction.sol\":5414:5415  0 */\n      0x00\n        /* \"auction.sol\":5391:5398  ratings */\n      0x01\n        /* \"auction.sol\":5391:5410  ratings[msg.sender] */\n      0x00\n        /* \"auction.sol\":5399:5409  msg.sender */\n      caller\n        /* \"auction.sol\":5391:5410  ratings[msg.sender] */\n      0xffffffffffffffffffffffffffffffffffffffff\n      and\n      0xffffffffffffffffffffffffffffffffffffffff\n      and\n      dup2\n      mstore\n      0x20\n      add\n      swap1\n      dup2\n      mstore\n      0x20\n      add\n      0x00\n      keccak256\n      sload\n        /* \"auction.sol\":5391:5415  ratings[msg.sender] != 0 */\n      eq\n        /* \"auction.sol\":5387:5465  if (ratings[msg.sender] != 0) {... */\n      tag_98\n      jumpi\n        /* \"auction.sol\":5431:5437  raters */\n      0x02\n        /* \"auction.sol\":5443:5453  msg.sender */\n      caller\n        /* \"auction.sol\":5431:5454  raters.push(msg.sender) */\n      swap1\n      dup1\n      0x01\n      dup2\n      sload\n      add\n      dup1\n      dup3\n      sstore\n      dup1\n      swap2\n      pop\n      pop\n      0x01\n      swap1\n      sub\n      swap1\n      0x00\n      mstore\n      keccak256(0x00, 0x20)\n      add\n      0x00\n      swap1\n      swap2\n      swap1\n      swap2\n      swap1\n      swap2\n      0x0100\n      exp\n      dup2\n      sload\n      dup2\n      0xffffffffffffffffffffffffffffffffffffffff\n      mul\n      not\n      and\n      swap1\n      dup4\n      0xffffffffffffffffffffffffffffffffffffffff\n      and\n      mul\n      or\n      swap1\n      sstore\n      pop\n        /* \"auction.sol\":5387:5465  if (ratings[msg.sender] != 0) {... */\n    tag_98:\n        /* \"auction.sol\":5497:5503  rating */\n      dup1\n        /* \"auction.sol\":5475:5482  ratings */\n      0x01\n        /* \"auction.sol\":5475:5494  ratings[msg.sender] */\n      0x00\n        /* \"auction.sol\":5483:5493  msg.sender */\n      caller\n        /* \"auction.sol\":5475:5494  ratings[msg.sender] */\n      0xffffffffffffffffffffffffffffffffffffffff\n      and\n      0xffffffffffffffffffffffffffffffffffffffff\n      and\n      dup2\n      mstore\n      0x20\n      add\n      swap1\n      dup2\n      mstore\n      0x20\n      add\n      0x00\n      keccak256\n        /* \"auction.sol\":5475:5503  ratings[msg.sender] = rating */\n      dup2\n      swap1\n      sstore\n      pop\n        /* \"auction.sol\":5166:5510  function rate(uint rating) external {... */\n      pop\n      jump\t// out\n        /* \"auction.sol\":5515:5605  function getRaters() public view returns (address[] memory) {... */\n    tag_66:\n        /* \"auction.sol\":5557:5573  address[] memory */\n      0x60\n        /* \"auction.sol\":5592:5598  raters */\n      0x02\n        /* \"auction.sol\":5585:5598  return raters */\n      dup1\n      sload\n      dup1\n      0x20\n      mul\n      0x20\n      add\n      mload(0x40)\n      swap1\n      dup2\n      add\n      0x40\n      mstore\n      dup1\n      swap3\n      swap2\n      swap1\n      dup2\n      dup2\n      mstore\n      0x20\n      add\n      dup3\n      dup1\n      sload\n      dup1\n      iszero\n      tag_101\n      jumpi\n      0x20\n      mul\n      dup3\n      add\n      swap2\n      swap1\n      0x00\n      mstore\n      keccak256(0x00, 0x20)\n      swap1\n    tag_102:\n      dup2\n      0x00\n      swap1\n      sload\n      swap1\n      0x0100\n      exp\n      swap1\n      div\n      0xffffffffffffffffffffffffffffffffffffffff\n      and\n      0xffffffffffffffffffffffffffffffffffffffff\n      and\n      dup2\n      mstore\n      0x20\n      add\n      swap1\n      0x01\n      add\n      swap1\n      dup1\n      dup4\n      gt\n      tag_102\n      jumpi\n    tag_101:\n      pop\n      pop\n      pop\n      pop\n      pop\n      swap1\n      pop\n        /* \"auction.sol\":5515:5605  function getRaters() public view returns (address[] memory) {... */\n      swap1\n      jump\t// out\n        /* \"#utility.yul\":7:97   */\n    tag_103:\n        /* \"#utility.yul\":41:48   */\n      0x00\n        /* \"#utility.yul\":84:89   */\n      dup2\n        /* \"#utility.yul\":77:90   */\n      iszero\n        /* \"#utility.yul\":70:91   */\n      iszero\n        /* \"#utility.yul\":59:91   */\n      swap1\n      pop\n        /* \"#utility.yul\":7:97   */\n      swap2\n      swap1\n      pop\n      jump\t// out\n        /* \"#utility.yul\":103:212   */\n    tag_104:\n        /* \"#utility.yul\":184:205   */\n      tag_135\n        /* \"#utility.yul\":199:204   */\n      dup2\n        /* \"#utility.yul\":184:205   */\n      tag_103\n      jump\t// in\n    tag_135:\n        /* \"#utility.yul\":179:182   */\n      dup3\n        /* \"#utility.yul\":172:206   */\n      mstore\n        /* \"#utility.yul\":103:212   */\n      pop\n      pop\n      jump\t// out\n        /* \"#utility.yul\":218:428   */\n    tag_19:\n        /* \"#utility.yul\":305:309   */\n      0x00\n        /* \"#utility.yul\":343:345   */\n      0x20\n        /* \"#utility.yul\":332:341   */\n      dup3\n        /* \"#utility.yul\":328:346   */\n      add\n        /* \"#utility.yul\":320:346   */\n      swap1\n      pop\n        /* \"#utility.yul\":356:421   */\n      tag_137\n        /* \"#utility.yul\":418:419   */\n      0x00\n        /* \"#utility.yul\":407:416   */\n      dup4\n        /* \"#utility.yul\":403:420   */\n      add\n        /* \"#utility.yul\":394:400   */\n      dup5\n        /* \"#utility.yul\":356:421   */\n      tag_104\n      jump\t// in\n    tag_137:\n        /* \"#utility.yul\":218:428   */\n      swap3\n      swap2\n      pop\n      pop\n      jump\t// out\n        /* \"#utility.yul\":434:560   */\n    tag_105:\n        /* \"#utility.yul\":471:478   */\n      0x00\n        /* \"#utility.yul\":511:553   */\n      0xffffffffffffffffffffffffffffffffffffffff\n        /* \"#utility.yul\":504:509   */\n      dup3\n        /* \"#utility.yul\":500:554   */\n      and\n        /* \"#utility.yul\":489:554   */\n      swap1\n      pop\n        /* \"#utility.yul\":434:560   */\n      swap2\n      swap1\n      pop\n      jump\t// out\n        /* \"#utility.yul\":566:670   */\n    tag_106:\n        /* \"#utility.yul\":611:618   */\n      0x00\n        /* \"#utility.yul\":640:664   */\n      tag_140\n        /* \"#utility.yul\":658:663   */\n      dup3\n        /* \"#utility.yul\":640:664   */\n      tag_105\n      jump\t// in\n    tag_140:\n        /* \"#utility.yul\":629:664   */\n      swap1\n      pop\n        /* \"#utility.yul\":566:670   */\n      swap2\n      swap1\n      pop\n      jump\t// out\n        /* \"#utility.yul\":676:818   */\n    tag_107:\n        /* \"#utility.yul\":779:811   */\n      tag_142\n        /* \"#utility.yul\":805:810   */\n      dup2\n        /* \"#utility.yul\":779:811   */\n      tag_106\n      jump\t// in\n    tag_142:\n        /* \"#utility.yul\":774:777   */\n      dup3\n        /* \"#utility.yul\":767:812   */\n      mstore\n        /* \"#utility.yul\":676:818   */\n      pop\n      pop\n      jump\t// out\n        /* \"#utility.yul\":824:1078   */\n    tag_29:\n        /* \"#utility.yul\":933:937   */\n      0x00\n        /* \"#utility.yul\":971:973   */\n      0x20\n        /* \"#utility.yul\":960:969   */\n      dup3\n        /* \"#utility.yul\":956:974   */\n      add\n        /* \"#utility.yul\":948:974   */\n      swap1\n      pop\n        /* \"#utility.yul\":984:1071   */\n      tag_144\n        /* \"#utility.yul\":1068:1069   */\n      0x00\n        /* \"#utility.yul\":1057:1066   */\n      dup4\n        /* \"#utility.yul\":1053:1070   */\n      add\n        /* \"#utility.yul\":1044:1050   */\n      dup5\n        /* \"#utility.yul\":984:1071   */\n      tag_107\n      jump\t// in\n    tag_144:\n        /* \"#utility.yul\":824:1078   */\n      swap3\n      swap2\n      pop\n      pop\n      jump\t// out\n        /* \"#utility.yul\":1084:1161   */\n    tag_108:\n        /* \"#utility.yul\":1121:1128   */\n      0x00\n        /* \"#utility.yul\":1150:1155   */\n      dup2\n        /* \"#utility.yul\":1139:1155   */\n      swap1\n      pop\n        /* \"#utility.yul\":1084:1161   */\n      swap2\n      swap1\n      pop\n      jump\t// out\n        /* \"#utility.yul\":1167:1285   */\n    tag_109:\n        /* \"#utility.yul\":1254:1278   */\n      tag_147\n        /* \"#utility.yul\":1272:1277   */\n      dup2\n        /* \"#utility.yul\":1254:1278   */\n      tag_108\n      jump\t// in\n    tag_147:\n        /* \"#utility.yul\":1249:1252   */\n      dup3\n        /* \"#utility.yul\":1242:1279   */\n      mstore\n        /* \"#utility.yul\":1167:1285   */\n      pop\n      pop\n      jump\t// out\n        /* \"#utility.yul\":1291:1513   */\n    tag_38:\n        /* \"#utility.yul\":1384:1388   */\n      0x00\n        /* \"#utility.yul\":1422:1424   */\n      0x20\n        /* \"#utility.yul\":1411:1420   */\n      dup3\n        /* \"#utility.yul\":1407:1425   */\n      add\n        /* \"#utility.yul\":1399:1425   */\n      swap1\n      pop\n        /* \"#utility.yul\":1435:1506   */\n      tag_149\n        /* \"#utility.yul\":1503:1504   */\n      0x00\n        /* \"#utility.yul\":1492:1501   */\n      dup4\n        /* \"#utility.yul\":1488:1505   */\n      add\n        /* \"#utility.yul\":1479:1485   */\n      dup5\n        /* \"#utility.yul\":1435:1506   */\n      tag_109\n      jump\t// in\n    tag_149:\n        /* \"#utility.yul\":1291:1513   */\n      swap3\n      swap2\n      pop\n      pop\n      jump\t// out\n        /* \"#utility.yul\":1600:1717   */\n    tag_111:\n        /* \"#utility.yul\":1709:1710   */\n      0x00\n        /* \"#utility.yul\":1706:1707   */\n      dup1\n        /* \"#utility.yul\":1699:1711   */\n      revert\n        /* \"#utility.yul\":1846:1968   */\n    tag_113:\n        /* \"#utility.yul\":1919:1943   */\n      tag_154\n        /* \"#utility.yul\":1937:1942   */\n      dup2\n        /* \"#utility.yul\":1919:1943   */\n      tag_108\n      jump\t// in\n    tag_154:\n        /* \"#utility.yul\":1912:1917   */\n      dup2\n        /* \"#utility.yul\":1909:1944   */\n      eq\n        /* \"#utility.yul\":1899:1962   */\n      tag_155\n      jumpi\n        /* \"#utility.yul\":1958:1959   */\n      0x00\n        /* \"#utility.yul\":1955:1956   */\n      dup1\n        /* \"#utility.yul\":1948:1960   */\n      revert\n        /* \"#utility.yul\":1899:1962   */\n    tag_155:\n        /* \"#utility.yul\":1846:1968   */\n      pop\n      jump\t// out\n        /* \"#utility.yul\":1974:2113   */\n    tag_114:\n        /* \"#utility.yul\":2020:2025   */\n      0x00\n        /* \"#utility.yul\":2058:2064   */\n      dup2\n        /* \"#utility.yul\":2045:2065   */\n      calldataload\n        /* \"#utility.yul\":2036:2065   */\n      swap1\n      pop\n        /* \"#utility.yul\":2074:2107   */\n      tag_157\n        /* \"#utility.yul\":2101:2106   */\n      dup2\n        /* \"#utility.yul\":2074:2107   */\n      tag_113\n      jump\t// in\n    tag_157:\n        /* \"#utility.yul\":1974:2113   */\n      swap3\n      swap2\n      pop\n      pop\n      jump\t// out\n        /* \"#utility.yul\":2119:2448   */\n    tag_42:\n        /* \"#utility.yul\":2178:2184   */\n      0x00\n        /* \"#utility.yul\":2227:2229   */\n      0x20\n        /* \"#utility.yul\":2215:2224   */\n      dup3\n        /* \"#utility.yul\":2206:2213   */\n      dup5\n        /* \"#utility.yul\":2202:2225   */\n      sub\n        /* \"#utility.yul\":2198:2230   */\n      slt\n        /* \"#utility.yul\":2195:2314   */\n      iszero\n      tag_159\n      jumpi\n        /* \"#utility.yul\":2233:2312   */\n      tag_160\n      tag_111\n      jump\t// in\n    tag_160:\n        /* \"#utility.yul\":2195:2314   */\n    tag_159:\n        /* \"#utility.yul\":2353:2354   */\n      0x00\n        /* \"#utility.yul\":2378:2431   */\n      tag_161\n        /* \"#utility.yul\":2423:2430   */\n      dup5\n        /* \"#utility.yul\":2414:2420   */\n      dup3\n        /* \"#utility.yul\":2403:2412   */\n      dup6\n        /* \"#utility.yul\":2399:2421   */\n      add\n        /* \"#utility.yul\":2378:2431   */\n      tag_114\n      jump\t// in\n    tag_161:\n        /* \"#utility.yul\":2368:2431   */\n      swap2\n      pop\n        /* \"#utility.yul\":2324:2441   */\n      pop\n        /* \"#utility.yul\":2119:2448   */\n      swap3\n      swap2\n      pop\n      pop\n      jump\t// out\n        /* \"#utility.yul\":2454:2550   */\n    tag_115:\n        /* \"#utility.yul\":2491:2498   */\n      0x00\n        /* \"#utility.yul\":2520:2544   */\n      tag_163\n        /* \"#utility.yul\":2538:2543   */\n      dup3\n        /* \"#utility.yul\":2520:2544   */\n      tag_105\n      jump\t// in\n    tag_163:\n        /* \"#utility.yul\":2509:2544   */\n      swap1\n      pop\n        /* \"#utility.yul\":2454:2550   */\n      swap2\n      swap1\n      pop\n      jump\t// out\n        /* \"#utility.yul\":2556:2674   */\n    tag_116:\n        /* \"#utility.yul\":2643:2667   */\n      tag_165\n        /* \"#utility.yul\":2661:2666   */\n      dup2\n        /* \"#utility.yul\":2643:2667   */\n      tag_115\n      jump\t// in\n    tag_165:\n        /* \"#utility.yul\":2638:2641   */\n      dup3\n        /* \"#utility.yul\":2631:2668   */\n      mstore\n        /* \"#utility.yul\":2556:2674   */\n      pop\n      pop\n      jump\t// out\n        /* \"#utility.yul\":2680:2902   */\n    tag_45:\n        /* \"#utility.yul\":2773:2777   */\n      0x00\n        /* \"#utility.yul\":2811:2813   */\n      0x20\n        /* \"#utility.yul\":2800:2809   */\n      dup3\n        /* \"#utility.yul\":2796:2814   */\n      add\n        /* \"#utility.yul\":2788:2814   */\n      swap1\n      pop\n        /* \"#utility.yul\":2824:2895   */\n      tag_167\n        /* \"#utility.yul\":2892:2893   */\n      0x00\n        /* \"#utility.yul\":2881:2890   */\n      dup4\n        /* \"#utility.yul\":2877:2894   */\n      add\n        /* \"#utility.yul\":2868:2874   */\n      dup5\n        /* \"#utility.yul\":2824:2895   */\n      tag_116\n      jump\t// in\n    tag_167:\n        /* \"#utility.yul\":2680:2902   */\n      swap3\n      swap2\n      pop\n      pop\n      jump\t// out\n        /* \"#utility.yul\":2908:3030   */\n    tag_117:\n        /* \"#utility.yul\":2981:3005   */\n      tag_169\n        /* \"#utility.yul\":2999:3004   */\n      dup2\n        /* \"#utility.yul\":2981:3005   */\n      tag_115\n      jump\t// in\n    tag_169:\n        /* \"#utility.yul\":2974:2979   */\n      dup2\n        /* \"#utility.yul\":2971:3006   */\n      eq\n        /* \"#utility.yul\":2961:3024   */\n      tag_170\n      jumpi\n        /* \"#utility.yul\":3020:3021   */\n      0x00\n        /* \"#utility.yul\":3017:3018   */\n      dup1\n        /* \"#utility.yul\":3010:3022   */\n      revert\n        /* \"#utility.yul\":2961:3024   */\n    tag_170:\n        /* \"#utility.yul\":2908:3030   */\n      pop\n      jump\t// out\n        /* \"#utility.yul\":3036:3175   */\n    tag_118:\n        /* \"#utility.yul\":3082:3087   */\n      0x00\n        /* \"#utility.yul\":3120:3126   */\n      dup2\n        /* \"#utility.yul\":3107:3127   */\n      calldataload\n        /* \"#utility.yul\":3098:3127   */\n      swap1\n      pop\n        /* \"#utility.yul\":3136:3169   */\n      tag_172\n        /* \"#utility.yul\":3163:3168   */\n      dup2\n        /* \"#utility.yul\":3136:3169   */\n      tag_117\n      jump\t// in\n    tag_172:\n        /* \"#utility.yul\":3036:3175   */\n      swap3\n      swap2\n      pop\n      pop\n      jump\t// out\n        /* \"#utility.yul\":3181:3510   */\n    tag_53:\n        /* \"#utility.yul\":3240:3246   */\n      0x00\n        /* \"#utility.yul\":3289:3291   */\n      0x20\n        /* \"#utility.yul\":3277:3286   */\n      dup3\n        /* \"#utility.yul\":3268:3275   */\n      dup5\n        /* \"#utility.yul\":3264:3287   */\n      sub\n        /* \"#utility.yul\":3260:3292   */\n      slt\n        /* \"#utility.yul\":3257:3376   */\n      iszero\n      tag_174\n      jumpi\n        /* \"#utility.yul\":3295:3374   */\n      tag_175\n      tag_111\n      jump\t// in\n    tag_175:\n        /* \"#utility.yul\":3257:3376   */\n    tag_174:\n        /* \"#utility.yul\":3415:3416   */\n      0x00\n        /* \"#utility.yul\":3440:3493   */\n      tag_176\n        /* \"#utility.yul\":3485:3492   */\n      dup5\n        /* \"#utility.yul\":3476:3482   */\n      dup3\n        /* \"#utility.yul\":3465:3474   */\n      dup6\n        /* \"#utility.yul\":3461:3483   */\n      add\n        /* \"#utility.yul\":3440:3493   */\n      tag_118\n      jump\t// in\n    tag_176:\n        /* \"#utility.yul\":3430:3493   */\n      swap2\n      pop\n        /* \"#utility.yul\":3386:3503   */\n      pop\n        /* \"#utility.yul\":3181:3510   */\n      swap3\n      swap2\n      pop\n      pop\n      jump\t// out\n        /* \"#utility.yul\":3516:3630   */\n    tag_119:\n        /* \"#utility.yul\":3583:3589   */\n      0x00\n        /* \"#utility.yul\":3617:3622   */\n      dup2\n        /* \"#utility.yul\":3611:3623   */\n      mload\n        /* \"#utility.yul\":3601:3623   */\n      swap1\n      pop\n        /* \"#utility.yul\":3516:3630   */\n      swap2\n      swap1\n      pop\n      jump\t// out\n        /* \"#utility.yul\":3636:3820   */\n    tag_120:\n        /* \"#utility.yul\":3735:3746   */\n      0x00\n        /* \"#utility.yul\":3769:3775   */\n      dup3\n        /* \"#utility.yul\":3764:3767   */\n      dup3\n        /* \"#utility.yul\":3757:3776   */\n      mstore\n        /* \"#utility.yul\":3809:3813   */\n      0x20\n        /* \"#utility.yul\":3804:3807   */\n      dup3\n        /* \"#utility.yul\":3800:3814   */\n      add\n        /* \"#utility.yul\":3785:3814   */\n      swap1\n      pop\n        /* \"#utility.yul\":3636:3820   */\n      swap3\n      swap2\n      pop\n      pop\n      jump\t// out\n        /* \"#utility.yul\":3826:3958   */\n    tag_121:\n        /* \"#utility.yul\":3893:3897   */\n      0x00\n        /* \"#utility.yul\":3916:3919   */\n      dup2\n        /* \"#utility.yul\":3908:3919   */\n      swap1\n      pop\n        /* \"#utility.yul\":3946:3950   */\n      0x20\n        /* \"#utility.yul\":3941:3944   */\n      dup3\n        /* \"#utility.yul\":3937:3951   */\n      add\n        /* \"#utility.yul\":3929:3951   */\n      swap1\n      pop\n        /* \"#utility.yul\":3826:3958   */\n      swap2\n      swap1\n      pop\n      jump\t// out\n        /* \"#utility.yul\":3964:4072   */\n    tag_122:\n        /* \"#utility.yul\":4041:4065   */\n      tag_181\n        /* \"#utility.yul\":4059:4064   */\n      dup2\n        /* \"#utility.yul\":4041:4065   */\n      tag_115\n      jump\t// in\n    tag_181:\n        /* \"#utility.yul\":4036:4039   */\n      dup3\n        /* \"#utility.yul\":4029:4066   */\n      mstore\n        /* \"#utility.yul\":3964:4072   */\n      pop\n      pop\n      jump\t// out\n        /* \"#utility.yul\":4078:4257   */\n    tag_123:\n        /* \"#utility.yul\":4147:4157   */\n      0x00\n        /* \"#utility.yul\":4168:4214   */\n      tag_183\n        /* \"#utility.yul\":4210:4213   */\n      dup4\n        /* \"#utility.yul\":4202:4208   */\n      dup4\n        /* \"#utility.yul\":4168:4214   */\n      tag_122\n      jump\t// in\n    tag_183:\n        /* \"#utility.yul\":4246:4250   */\n      0x20\n        /* \"#utility.yul\":4241:4244   */\n      dup4\n        /* \"#utility.yul\":4237:4251   */\n      add\n        /* \"#utility.yul\":4223:4251   */\n      swap1\n      pop\n        /* \"#utility.yul\":4078:4257   */\n      swap3\n      swap2\n      pop\n      pop\n      jump\t// out\n        /* \"#utility.yul\":4263:4376   */\n    tag_124:\n        /* \"#utility.yul\":4333:4337   */\n      0x00\n        /* \"#utility.yul\":4365:4369   */\n      0x20\n        /* \"#utility.yul\":4360:4363   */\n      dup3\n        /* \"#utility.yul\":4356:4370   */\n      add\n        /* \"#utility.yul\":4348:4370   */\n      swap1\n      pop\n        /* \"#utility.yul\":4263:4376   */\n      swap2\n      swap1\n      pop\n      jump\t// out\n        /* \"#utility.yul\":4412:5144   */\n    tag_125:\n        /* \"#utility.yul\":4531:4534   */\n      0x00\n        /* \"#utility.yul\":4560:4614   */\n      tag_186\n        /* \"#utility.yul\":4608:4613   */\n      dup3\n        /* \"#utility.yul\":4560:4614   */\n      tag_119\n      jump\t// in\n    tag_186:\n        /* \"#utility.yul\":4630:4716   */\n      tag_187\n        /* \"#utility.yul\":4709:4715   */\n      dup2\n        /* \"#utility.yul\":4704:4707   */\n      dup6\n        /* \"#utility.yul\":4630:4716   */\n      tag_120\n      jump\t// in\n    tag_187:\n        /* \"#utility.yul\":4623:4716   */\n      swap4\n      pop\n        /* \"#utility.yul\":4740:4796   */\n      tag_188\n        /* \"#utility.yul\":4790:4795   */\n      dup4\n        /* \"#utility.yul\":4740:4796   */\n      tag_121\n      jump\t// in\n    tag_188:\n        /* \"#utility.yul\":4819:4826   */\n      dup1\n        /* \"#utility.yul\":4850:4851   */\n      0x00\n        /* \"#utility.yul\":4835:5119   */\n    tag_189:\n        /* \"#utility.yul\":4860:4866   */\n      dup4\n        /* \"#utility.yul\":4857:4858   */\n      dup2\n        /* \"#utility.yul\":4854:4867   */\n      lt\n        /* \"#utility.yul\":4835:5119   */\n      iszero\n      tag_191\n      jumpi\n        /* \"#utility.yul\":4936:4942   */\n      dup2\n        /* \"#utility.yul\":4930:4943   */\n      mload\n        /* \"#utility.yul\":4963:5026   */\n      tag_192\n        /* \"#utility.yul\":5022:5025   */\n      dup9\n        /* \"#utility.yul\":5007:5020   */\n      dup3\n        /* \"#utility.yul\":4963:5026   */\n      tag_123\n      jump\t// in\n    tag_192:\n        /* \"#utility.yul\":4956:5026   */\n      swap8\n      pop\n        /* \"#utility.yul\":5049:5109   */\n      tag_193\n        /* \"#utility.yul\":5102:5108   */\n      dup4\n        /* \"#utility.yul\":5049:5109   */\n      tag_124\n      jump\t// in\n    tag_193:\n        /* \"#utility.yul\":5039:5109   */\n      swap3\n      pop\n        /* \"#utility.yul\":4895:5119   */\n      pop\n        /* \"#utility.yul\":4882:4883   */\n      0x01\n        /* \"#utility.yul\":4879:4880   */\n      dup2\n        /* \"#utility.yul\":4875:4884   */\n      add\n        /* \"#utility.yul\":4870:4884   */\n      swap1\n      pop\n        /* \"#utility.yul\":4835:5119   */\n      jump(tag_189)\n    tag_191:\n        /* \"#utility.yul\":4839:4853   */\n      pop\n        /* \"#utility.yul\":5135:5138   */\n      dup6\n        /* \"#utility.yul\":5128:5138   */\n      swap4\n      pop\n        /* \"#utility.yul\":4536:5144   */\n      pop\n      pop\n      pop\n        /* \"#utility.yul\":4412:5144   */\n      swap3\n      swap2\n      pop\n      pop\n      jump\t// out\n        /* \"#utility.yul\":5150:5523   */\n    tag_68:\n        /* \"#utility.yul\":5293:5297   */\n      0x00\n        /* \"#utility.yul\":5331:5333   */\n      0x20\n        /* \"#utility.yul\":5320:5329   */\n      dup3\n        /* \"#utility.yul\":5316:5334   */\n      add\n        /* \"#utility.yul\":5308:5334   */\n      swap1\n      pop\n        /* \"#utility.yul\":5380:5389   */\n      dup2\n        /* \"#utility.yul\":5374:5378   */\n      dup2\n        /* \"#utility.yul\":5370:5390   */\n      sub\n        /* \"#utility.yul\":5366:5367   */\n      0x00\n        /* \"#utility.yul\":5355:5364   */\n      dup4\n        /* \"#utility.yul\":5351:5368   */\n      add\n        /* \"#utility.yul\":5344:5391   */\n      mstore\n        /* \"#utility.yul\":5408:5516   */\n      tag_195\n        /* \"#utility.yul\":5511:5515   */\n      dup2\n        /* \"#utility.yul\":5502:5508   */\n      dup5\n        /* \"#utility.yul\":5408:5516   */\n      tag_125\n      jump\t// in\n    tag_195:\n        /* \"#utility.yul\":5400:5516   */\n      swap1\n      pop\n        /* \"#utility.yul\":5150:5523   */\n      swap3\n      swap2\n      pop\n      pop\n      jump\t// out\n        /* \"#utility.yul\":5529:5709   */\n    tag_126:\n        /* \"#utility.yul\":5577:5654   */\n      0x4e487b7100000000000000000000000000000000000000000000000000000000\n        /* \"#utility.yul\":5574:5575   */\n      0x00\n        /* \"#utility.yul\":5567:5655   */\n      mstore\n        /* \"#utility.yul\":5674:5678   */\n      0x11\n        /* \"#utility.yul\":5671:5672   */\n      0x04\n        /* \"#utility.yul\":5664:5679   */\n      mstore\n        /* \"#utility.yul\":5698:5702   */\n      0x24\n        /* \"#utility.yul\":5695:5696   */\n      0x00\n        /* \"#utility.yul\":5688:5703   */\n      revert\n        /* \"#utility.yul\":5715:5906   */\n    tag_75:\n        /* \"#utility.yul\":5755:5758   */\n      0x00\n        /* \"#utility.yul\":5774:5794   */\n      tag_198\n        /* \"#utility.yul\":5792:5793   */\n      dup3\n        /* \"#utility.yul\":5774:5794   */\n      tag_108\n      jump\t// in\n    tag_198:\n        /* \"#utility.yul\":5769:5794   */\n      swap2\n      pop\n        /* \"#utility.yul\":5808:5828   */\n      tag_199\n        /* \"#utility.yul\":5826:5827   */\n      dup4\n        /* \"#utility.yul\":5808:5828   */\n      tag_108\n      jump\t// in\n    tag_199:\n        /* \"#utility.yul\":5803:5828   */\n      swap3\n      pop\n        /* \"#utility.yul\":5851:5852   */\n      dup3\n        /* \"#utility.yul\":5848:5849   */\n      dup3\n        /* \"#utility.yul\":5844:5853   */\n      add\n        /* \"#utility.yul\":5837:5853   */\n      swap1\n      pop\n        /* \"#utility.yul\":5872:5875   */\n      dup1\n        /* \"#utility.yul\":5869:5870   */\n      dup3\n        /* \"#utility.yul\":5866:5876   */\n      gt\n        /* \"#utility.yul\":5863:5899   */\n      iszero\n      tag_200\n      jumpi\n        /* \"#utility.yul\":5879:5897   */\n      tag_201\n      tag_126\n      jump\t// in\n    tag_201:\n        /* \"#utility.yul\":5863:5899   */\n    tag_200:\n        /* \"#utility.yul\":5715:5906   */\n      swap3\n      swap2\n      pop\n      pop\n      jump\t// out\n        /* \"#utility.yul\":5912:6244   */\n    tag_77:\n        /* \"#utility.yul\":6033:6037   */\n      0x00\n        /* \"#utility.yul\":6071:6073   */\n      0x40\n        /* \"#utility.yul\":6060:6069   */\n      dup3\n        /* \"#utility.yul\":6056:6074   */\n      add\n        /* \"#utility.yul\":6048:6074   */\n      swap1\n      pop\n        /* \"#utility.yul\":6084:6155   */\n      tag_203\n        /* \"#utility.yul\":6152:6153   */\n      0x00\n        /* \"#utility.yul\":6141:6150   */\n      dup4\n        /* \"#utility.yul\":6137:6154   */\n      add\n        /* \"#utility.yul\":6128:6134   */\n      dup6\n        /* \"#utility.yul\":6084:6155   */\n      tag_116\n      jump\t// in\n    tag_203:\n        /* \"#utility.yul\":6165:6237   */\n      tag_204\n        /* \"#utility.yul\":6233:6235   */\n      0x20\n        /* \"#utility.yul\":6222:6231   */\n      dup4\n        /* \"#utility.yul\":6218:6236   */\n      add\n        /* \"#utility.yul\":6209:6215   */\n      dup5\n        /* \"#utility.yul\":6165:6237   */\n      tag_109\n      jump\t// in\n    tag_204:\n        /* \"#utility.yul\":5912:6244   */\n      swap4\n      swap3\n      pop\n      pop\n      pop\n      jump\t// out\n        /* \"#utility.yul\":6250:6419   */\n    tag_127:\n        /* \"#utility.yul\":6334:6345   */\n      0x00\n        /* \"#utility.yul\":6368:6374   */\n      dup3\n        /* \"#utility.yul\":6363:6366   */\n      dup3\n        /* \"#utility.yul\":6356:6375   */\n      mstore\n        /* \"#utility.yul\":6408:6412   */\n      0x20\n        /* \"#utility.yul\":6403:6406   */\n      dup3\n        /* \"#utility.yul\":6399:6413   */\n      add\n        /* \"#utility.yul\":6384:6413   */\n      swap1\n      pop\n        /* \"#utility.yul\":6250:6419   */\n      swap3\n      swap2\n      pop\n      pop\n      jump\t// out\n        /* \"#utility.yul\":6425:6602   */\n    tag_128:\n        /* \"#utility.yul\":6565:6594   */\n      0x526174696e67206d7573742062652066726f6d203120746f20352e0000000000\n        /* \"#utility.yul\":6561:6562   */\n      0x00\n        /* \"#utility.yul\":6553:6559   */\n      dup3\n        /* \"#utility.yul\":6549:6563   */\n      add\n        /* \"#utility.yul\":6542:6595   */\n      mstore\n        /* \"#utility.yul\":6425:6602   */\n      pop\n      jump\t// out\n        /* \"#utility.yul\":6608:6974   */\n    tag_129:\n        /* \"#utility.yul\":6750:6753   */\n      0x00\n        /* \"#utility.yul\":6771:6838   */\n      tag_208\n        /* \"#utility.yul\":6835:6837   */\n      0x1b\n        /* \"#utility.yul\":6830:6833   */\n      dup4\n        /* \"#utility.yul\":6771:6838   */\n      tag_127\n      jump\t// in\n    tag_208:\n        /* \"#utility.yul\":6764:6838   */\n      swap2\n      pop\n        /* \"#utility.yul\":6847:6940   */\n      tag_209\n        /* \"#utility.yul\":6936:6939   */\n      dup3\n        /* \"#utility.yul\":6847:6940   */\n      tag_128\n      jump\t// in\n    tag_209:\n        /* \"#utility.yul\":6965:6967   */\n      0x20\n        /* \"#utility.yul\":6960:6963   */\n      dup3\n        /* \"#utility.yul\":6956:6968   */\n      add\n        /* \"#utility.yul\":6949:6968   */\n      swap1\n      pop\n        /* \"#utility.yul\":6608:6974   */\n      swap2\n      swap1\n      pop\n      jump\t// out\n        /* \"#utility.yul\":6980:7399   */\n    tag_94:\n        /* \"#utility.yul\":7146:7150   */\n      0x00\n        /* \"#utility.yul\":7184:7186   */\n      0x20\n        /* \"#utility.yul\":7173:7182   */\n      dup3\n        /* \"#utility.yul\":7169:7187   */\n      add\n        /* \"#utility.yul\":7161:7187   */\n      swap1\n      pop\n        /* \"#utility.yul\":7233:7242   */\n      dup2\n        /* \"#utility.yul\":7227:7231   */\n      dup2\n        /* \"#utility.yul\":7223:7243   */\n      sub\n        /* \"#utility.yul\":7219:7220   */\n      0x00\n        /* \"#utility.yul\":7208:7217   */\n      dup4\n        /* \"#utility.yul\":7204:7221   */\n      add\n        /* \"#utility.yul\":7197:7244   */\n      mstore\n        /* \"#utility.yul\":7261:7392   */\n      tag_211\n        /* \"#utility.yul\":7387:7391   */\n      dup2\n        /* \"#utility.yul\":7261:7392   */\n      tag_129\n      jump\t// in\n    tag_211:\n        /* \"#utility.yul\":7253:7392   */\n      swap1\n      pop\n        /* \"#utility.yul\":6980:7399   */\n      swap2\n      swap1\n      pop\n      jump\t// out\n        /* \"#utility.yul\":7405:7637   */\n    tag_130:\n        /* \"#utility.yul\":7545:7579   */\n      0x596f752063616e2072617465206f6e6c7920696620796f752068617665207072\n        /* \"#utility.yul\":7541:7542   */\n      0x00\n        /* \"#utility.yul\":7533:7539   */\n      dup3\n        /* \"#utility.yul\":7529:7543   */\n      add\n        /* \"#utility.yul\":7522:7580   */\n      mstore\n        /* \"#utility.yul\":7614:7629   */\n      0x6576696f75736c79206269642e00000000000000000000000000000000000000\n        /* \"#utility.yul\":7609:7611   */\n      0x20\n        /* \"#utility.yul\":7601:7607   */\n      dup3\n        /* \"#utility.yul\":7597:7612   */\n      add\n        /* \"#utility.yul\":7590:7630   */\n      mstore\n        /* \"#utility.yul\":7405:7637   */\n      pop\n      jump\t// out\n        /* \"#utility.yul\":7643:8009   */\n    tag_131:\n        /* \"#utility.yul\":7785:7788   */\n      0x00\n        /* \"#utility.yul\":7806:7873   */\n      tag_214\n        /* \"#utility.yul\":7870:7872   */\n      0x2d\n        /* \"#utility.yul\":7865:7868   */\n      dup4\n        /* \"#utility.yul\":7806:7873   */\n      tag_127\n      jump\t// in\n    tag_214:\n        /* \"#utility.yul\":7799:7873   */\n      swap2\n      pop\n        /* \"#utility.yul\":7882:7975   */\n      tag_215\n        /* \"#utility.yul\":7971:7974   */\n      dup3\n        /* \"#utility.yul\":7882:7975   */\n      tag_130\n      jump\t// in\n    tag_215:\n        /* \"#utility.yul\":8000:8002   */\n      0x40\n        /* \"#utility.yul\":7995:7998   */\n      dup3\n        /* \"#utility.yul\":7991:8003   */\n      add\n        /* \"#utility.yul\":7984:8003   */\n      swap1\n      pop\n        /* \"#utility.yul\":7643:8009   */\n      swap2\n      swap1\n      pop\n      jump\t// out\n        /* \"#utility.yul\":8015:8434   */\n    tag_97:\n        /* \"#utility.yul\":8181:8185   */\n      0x00\n        /* \"#utility.yul\":8219:8221   */\n      0x20\n        /* \"#utility.yul\":8208:8217   */\n      dup3\n        /* \"#utility.yul\":8204:8222   */\n      add\n        /* \"#utility.yul\":8196:8222   */\n      swap1\n      pop\n        /* \"#utility.yul\":8268:8277   */\n      dup2\n        /* \"#utility.yul\":8262:8266   */\n      dup2\n        /* \"#utility.yul\":8258:8278   */\n      sub\n        /* \"#utility.yul\":8254:8255   */\n      0x00\n        /* \"#utility.yul\":8243:8252   */\n      dup4\n        /* \"#utility.yul\":8239:8256   */\n      add\n        /* \"#utility.yul\":8232:8279   */\n      mstore\n        /* \"#utility.yul\":8296:8427   */\n      tag_217\n        /* \"#utility.yul\":8422:8426   */\n      dup2\n        /* \"#utility.yul\":8296:8427   */\n      tag_131\n      jump\t// in\n    tag_217:\n        /* \"#utility.yul\":8288:8427   */\n      swap1\n      pop\n        /* \"#utility.yul\":8015:8434   */\n      swap2\n      swap1\n      pop\n      jump\t// out\n\n    auxdata: 0xa2646970667358221220685ed012fc87c1d0b6ac0009dd69bd9efee0131e6640fa8750532b33ceaa230464736f6c634300081a0033\n}\n",
				"bytecode": {
					"linkReferences": {},
					"object": "608060405234801561000f575f80fd5b50604051610f89380380610f898339818101604052810190610031919061011a565b805f806101000a81548173ffffffffffffffffffffffffffffffffffffffff021916908373ffffffffffffffffffffffffffffffffffffffff160217905550814261007c9190610185565b60038190555050506101b8565b5f80fd5b5f819050919050565b61009f8161008d565b81146100a9575f80fd5b50565b5f815190506100ba81610096565b92915050565b5f73ffffffffffffffffffffffffffffffffffffffff82169050919050565b5f6100e9826100c0565b9050919050565b6100f9816100df565b8114610103575f80fd5b50565b5f81519050610114816100f0565b92915050565b5f80604083850312156101305761012f610089565b5b5f61013d858286016100ac565b925050602061014e85828601610106565b9150509250929050565b7f4e487b71000000000000000000000000000000000000000000000000000000005f52601160045260245ffd5b5f61018f8261008d565b915061019a8361008d565b92508282019050808211156101b2576101b1610158565b5b92915050565b610dc4806101c55f395ff3fe6080604052600436106100a6575f3560e01c80638463b38b116100635780638463b38b1461017257806391f90157146101ae5780639e01dfbb146101d8578063d57bde7914610214578063e7ee6ad61461023e578063ef9973ba14610266576100a6565b806312fa6feb146100aa5780631998aeef146100d45780632a24f46c146100de57806338af3eed146100f45780633ccfd60b1461011e5780634b449cba14610148575b5f80fd5b3480156100b5575f80fd5b506100be610290565b6040516100cb91906109a1565b60405180910390f35b6100dc6102a2565b005b3480156100e9575f80fd5b506100f2610428565b005b3480156100ff575f80fd5b50610108610587565b60405161011591906109f9565b60405180910390f35b348015610129575f80fd5b506101326105aa565b60405161013f91906109a1565b60405180910390f35b348015610153575f80fd5b5061015c6106c3565b6040516101699190610a2a565b60405180910390f35b34801561017d575f80fd5b5061019860048036038101906101939190610a71565b6106c9565b6040516101a59190610abc565b60405180910390f35b3480156101b9575f80fd5b506101c2610704565b6040516101cf9190610abc565b60405180910390f35b3480156101e3575f80fd5b506101fe60048036038101906101f99190610aff565b610729565b60405161020b9190610a2a565b60405180910390f35b34801561021f575f80fd5b5061022861073e565b6040516102359190610a2a565b60405180910390f35b348015610249575f80fd5b50610264600480360381019061025f9190610a71565b610744565b005b348015610271575f80fd5b5061027a6108fc565b6040516102879190610be1565b60405180910390f35b60075f9054906101000a900460ff1681565b6003544211156102de576040517fd02e774d00000000000000000000000000000000000000000000000000000000815260040160405180910390fd5b6005543411610326576005546040517f4e12c1bb00000000000000000000000000000000000000000000000000000000815260040161031d9190610a2a565b60405180910390fd5b5f600554146103a65760055460065f60045f9054906101000a900473ffffffffffffffffffffffffffffffffffffffff1673ffffffffffffffffffffffffffffffffffffffff1673ffffffffffffffffffffffffffffffffffffffff1681526020019081526020015f205f82825461039e9190610c2e565b925050819055505b3360045f6101000a81548173ffffffffffffffffffffffffffffffffffffffff021916908373ffffffffffffffffffffffffffffffffffffffff160217905550346005819055507ff4757a49b326036464bec6fe419a4ae38c8a02ce3e68bf0809674f6aab8ad300333460405161041e929190610c61565b60405180910390a1565b600354421015610464576040517f44cee29000000000000000000000000000000000000000000000000000000000815260040160405180910390fd5b60075f9054906101000a900460ff16156104aa576040517f61cfdcf800000000000000000000000000000000000000000000000000000000815260040160405180910390fd5b600160075f6101000a81548160ff0219169083151502179055507fdaec4582d5d9595688c8c98545fdd1c696d41c6aeaeb636737e84ed2f5c00eda60045f9054906101000a900473ffffffffffffffffffffffffffffffffffffffff16600554604051610518929190610c61565b60405180910390a15f8054906101000a900473ffffffffffffffffffffffffffffffffffffffff1673ffffffffffffffffffffffffffffffffffffffff166108fc60055490811502906040515f60405180830381858888f19350505050158015610584573d5f803e3d5ffd5b50565b5f8054906101000a900473ffffffffffffffffffffffffffffffffffffffff1681565b5f8060065f3373ffffffffffffffffffffffffffffffffffffffff1673ffffffffffffffffffffffffffffffffffffffff1681526020019081526020015f205490505f8111156106ba575f60065f3373ffffffffffffffffffffffffffffffffffffffff1673ffffffffffffffffffffffffffffffffffffffff1681526020019081526020015f20819055503373ffffffffffffffffffffffffffffffffffffffff166108fc8290811502906040515f60405180830381858888f193505050506106b9578060065f3373ffffffffffffffffffffffffffffffffffffffff1673ffffffffffffffffffffffffffffffffffffffff1681526020019081526020015f20819055505f9150506106c0565b5b60019150505b90565b60035481565b600281815481106106d8575f80fd5b905f5260205f20015f915054906101000a900473ffffffffffffffffffffffffffffffffffffffff1681565b60045f9054906101000a900473ffffffffffffffffffffffffffffffffffffffff1681565b6001602052805f5260405f205f915090505481565b60055481565b5f81118015610754575060058111155b610793576040517f08c379a000000000000000000000000000000000000000000000000000000000815260040161078a90610ce2565b60405180910390fd5b5f60065f3373ffffffffffffffffffffffffffffffffffffffff1673ffffffffffffffffffffffffffffffffffffffff1681526020019081526020015f205403610812576040517f08c379a000000000000000000000000000000000000000000000000000000000815260040161080990610d70565b60405180910390fd5b5f60015f3373ffffffffffffffffffffffffffffffffffffffff1673ffffffffffffffffffffffffffffffffffffffff1681526020019081526020015f2054146108b757600233908060018154018082558091505060019003905f5260205f20015f9091909190916101000a81548173ffffffffffffffffffffffffffffffffffffffff021916908373ffffffffffffffffffffffffffffffffffffffff1602179055505b8060015f3373ffffffffffffffffffffffffffffffffffffffff1673ffffffffffffffffffffffffffffffffffffffff1681526020019081526020015f208190555050565b6060600280548060200260200160405190810160405280929190818152602001828054801561097d57602002820191905f5260205f20905b815f9054906101000a900473ffffffffffffffffffffffffffffffffffffffff1673ffffffffffffffffffffffffffffffffffffffff1681526020019060010190808311610934575b5050505050905090565b5f8115159050919050565b61099b81610987565b82525050565b5f6020820190506109b45f830184610992565b92915050565b5f73ffffffffffffffffffffffffffffffffffffffff82169050919050565b5f6109e3826109ba565b9050919050565b6109f3816109d9565b82525050565b5f602082019050610a0c5f8301846109ea565b92915050565b5f819050919050565b610a2481610a12565b82525050565b5f602082019050610a3d5f830184610a1b565b92915050565b5f80fd5b610a5081610a12565b8114610a5a575f80fd5b50565b5f81359050610a6b81610a47565b92915050565b5f60208284031215610a8657610a85610a43565b5b5f610a9384828501610a5d565b91505092915050565b5f610aa6826109ba565b9050919050565b610ab681610a9c565b82525050565b5f602082019050610acf5f830184610aad565b92915050565b610ade81610a9c565b8114610ae8575f80fd5b50565b5f81359050610af981610ad5565b92915050565b5f60208284031215610b1457610b13610a43565b5b5f610b2184828501610aeb565b91505092915050565b5f81519050919050565b5f82825260208201905092915050565b5f819050602082019050919050565b610b5c81610a9c565b82525050565b5f610b6d8383610b53565b60208301905092915050565b5f602082019050919050565b5f610b8f82610b2a565b610b998185610b34565b9350610ba483610b44565b805f5b83811015610bd4578151610bbb8882610b62565b9750610bc683610b79565b925050600181019050610ba7565b5085935050505092915050565b5f6020820190508181035f830152610bf98184610b85565b905092915050565b7f4e487b71000000000000000000000000000000000000000000000000000000005f52601160045260245ffd5b5f610c3882610a12565b9150610c4383610a12565b9250828201905080821115610c5b57610c5a610c01565b5b92915050565b5f604082019050610c745f830185610aad565b610c816020830184610a1b565b9392505050565b5f82825260208201905092915050565b7f526174696e67206d7573742062652066726f6d203120746f20352e00000000005f82015250565b5f610ccc601b83610c88565b9150610cd782610c98565b602082019050919050565b5f6020820190508181035f830152610cf981610cc0565b9050919050565b7f596f752063616e2072617465206f6e6c7920696620796f7520686176652070725f8201527f6576696f75736c79206269642e00000000000000000000000000000000000000602082015250565b5f610d5a602d83610c88565b9150610d6582610d00565b604082019050919050565b5f6020820190508181035f830152610d8781610d4e565b905091905056fea2646970667358221220685ed012fc87c1d0b6ac0009dd69bd9efee0131e6640fa8750532b33ceaa230464736f6c634300081a0033",
					"opcodes": "PUSH1 0x80 PUSH1 0x40 MSTORE CALLVALUE DUP1 ISZERO PUSH2 0xF JUMPI PUSH0 DUP1 REVERT JUMPDEST POP PUSH1 0x40 MLOAD PUSH2 0xF89 CODESIZE SUB DUP1 PUSH2 0xF89 DUP4 CODECOPY DUP2 DUP2 ADD PUSH1 0x40 MSTORE DUP2 ADD SWAP1 PUSH2 0x31 SWAP2 SWAP1 PUSH2 0x11A JUMP JUMPDEST DUP1 PUSH0 DUP1 PUSH2 0x100 EXP DUP2 SLOAD DUP2 PUSH20 0xFFFFFFFFFFFFFFFFFFFFFFFFFFFFFFFFFFFFFFFF MUL NOT AND SWAP1 DUP4 PUSH20 0xFFFFFFFFFFFFFFFFFFFFFFFFFFFFFFFFFFFFFFFF AND MUL OR SWAP1 SSTORE POP DUP2 TIMESTAMP PUSH2 0x7C SWAP2 SWAP1 PUSH2 0x185 JUMP JUMPDEST PUSH1 0x3 DUP2 SWAP1 SSTORE POP POP POP PUSH2 0x1B8 JUMP JUMPDEST PUSH0 DUP1 REVERT JUMPDEST PUSH0 DUP2 SWAP1 POP SWAP2 SWAP1 POP JUMP JUMPDEST PUSH2 0x9F DUP2 PUSH2 0x8D JUMP JUMPDEST DUP2 EQ PUSH2 0xA9 JUMPI PUSH0 DUP1 REVERT JUMPDEST POP JUMP JUMPDEST PUSH0 DUP2 MLOAD SWAP1 POP PUSH2 0xBA DUP2 PUSH2 0x96 JUMP JUMPDEST SWAP3 SWAP2 POP POP JUMP JUMPDEST PUSH0 PUSH20 0xFFFFFFFFFFFFFFFFFFFFFFFFFFFFFFFFFFFFFFFF DUP3 AND SWAP1 POP SWAP2 SWAP1 POP JUMP JUMPDEST PUSH0 PUSH2 0xE9 DUP3 PUSH2 0xC0 JUMP JUMPDEST SWAP1 POP SWAP2 SWAP1 POP JUMP JUMPDEST PUSH2 0xF9 DUP2 PUSH2 0xDF JUMP JUMPDEST DUP2 EQ PUSH2 0x103 JUMPI PUSH0 DUP1 REVERT JUMPDEST POP JUMP JUMPDEST PUSH0 DUP2 MLOAD SWAP1 POP PUSH2 0x114 DUP2 PUSH2 0xF0 JUMP JUMPDEST SWAP3 SWAP2 POP POP JUMP JUMPDEST PUSH0 DUP1 PUSH1 0x40 DUP4 DUP6 SUB SLT ISZERO PUSH2 0x130 JUMPI PUSH2 0x12F PUSH2 0x89 JUMP JUMPDEST JUMPDEST PUSH0 PUSH2 0x13D DUP6 DUP3 DUP7 ADD PUSH2 0xAC JUMP JUMPDEST SWAP3 POP POP PUSH1 0x20 PUSH2 0x14E DUP6 DUP3 DUP7 ADD PUSH2 0x106 JUMP JUMPDEST SWAP2 POP POP SWAP3 POP SWAP3 SWAP1 POP JUMP JUMPDEST PUSH32 0x4E487B7100000000000000000000000000000000000000000000000000000000 PUSH0 MSTORE PUSH1 0x11 PUSH1 0x4 MSTORE PUSH1 0x24 PUSH0 REVERT JUMPDEST PUSH0 PUSH2 0x18F DUP3 PUSH2 0x8D JUMP JUMPDEST SWAP2 POP PUSH2 0x19A DUP4 PUSH2 0x8D JUMP JUMPDEST SWAP3 POP DUP3 DUP3 ADD SWAP1 POP DUP1 DUP3 GT ISZERO PUSH2 0x1B2 JUMPI PUSH2 0x1B1 PUSH2 0x158 JUMP JUMPDEST JUMPDEST SWAP3 SWAP2 POP POP JUMP JUMPDEST PUSH2 0xDC4 DUP1 PUSH2 0x1C5 PUSH0 CODECOPY PUSH0 RETURN INVALID PUSH1 0x80 PUSH1 0x40 MSTORE PUSH1 0x4 CALLDATASIZE LT PUSH2 0xA6 JUMPI PUSH0 CALLDATALOAD PUSH1 0xE0 SHR DUP1 PUSH4 0x8463B38B GT PUSH2 0x63 JUMPI DUP1 PUSH4 0x8463B38B EQ PUSH2 0x172 JUMPI DUP1 PUSH4 0x91F90157 EQ PUSH2 0x1AE JUMPI DUP1 PUSH4 0x9E01DFBB EQ PUSH2 0x1D8 JUMPI DUP1 PUSH4 0xD57BDE79 EQ PUSH2 0x214 JUMPI DUP1 PUSH4 0xE7EE6AD6 EQ PUSH2 0x23E JUMPI DUP1 PUSH4 0xEF9973BA EQ PUSH2 0x266 JUMPI PUSH2 0xA6 JUMP JUMPDEST DUP1 PUSH4 0x12FA6FEB EQ PUSH2 0xAA JUMPI DUP1 PUSH4 0x1998AEEF EQ PUSH2 0xD4 JUMPI DUP1 PUSH4 0x2A24F46C EQ PUSH2 0xDE JUMPI DUP1 PUSH4 0x38AF3EED EQ PUSH2 0xF4 JUMPI DUP1 PUSH4 0x3CCFD60B EQ PUSH2 0x11E JUMPI DUP1 PUSH4 0x4B449CBA EQ PUSH2 0x148 JUMPI JUMPDEST PUSH0 DUP1 REVERT JUMPDEST CALLVALUE DUP1 ISZERO PUSH2 0xB5 JUMPI PUSH0 DUP1 REVERT JUMPDEST POP PUSH2 0xBE PUSH2 0x290 JUMP JUMPDEST PUSH1 0x40 MLOAD PUSH2 0xCB SWAP2 SWAP1 PUSH2 0x9A1 JUMP JUMPDEST PUSH1 0x40 MLOAD DUP1 SWAP2 SUB SWAP1 RETURN JUMPDEST PUSH2 0xDC PUSH2 0x2A2 JUMP JUMPDEST STOP JUMPDEST CALLVALUE DUP1 ISZERO PUSH2 0xE9 JUMPI PUSH0 DUP1 REVERT JUMPDEST POP PUSH2 0xF2 PUSH2 0x428 JUMP JUMPDEST STOP JUMPDEST CALLVALUE DUP1 ISZERO PUSH2 0xFF JUMPI PUSH0 DUP1 REVERT JUMPDEST POP PUSH2 0x108 PUSH2 0x587 JUMP JUMPDEST PUSH1 0x40 MLOAD PUSH2 0x115 SWAP2 SWAP1 PUSH2 0x9F9 JUMP JUMPDEST PUSH1 0x40 MLOAD DUP1 SWAP2 SUB SWAP1 RETURN JUMPDEST CALLVALUE DUP1 ISZERO PUSH2 0x129 JUMPI PUSH0 DUP1 REVERT JUMPDEST POP PUSH2 0x132 PUSH2 0x5AA JUMP JUMPDEST PUSH1 0x40 MLOAD PUSH2 0x13F SWAP2 SWAP1 PUSH2 0x9A1 JUMP JUMPDEST PUSH1 0x40 MLOAD DUP1 SWAP2 SUB SWAP1 RETURN JUMPDEST CALLVALUE DUP1 ISZERO PUSH2 0x153 JUMPI PUSH0 DUP1 REVERT JUMPDEST POP PUSH2 0x15C PUSH2 0x6C3 JUMP JUMPDEST PUSH1 0x40 MLOAD PUSH2 0x169 SWAP2 SWAP1 PUSH2 0xA2A JUMP JUMPDEST PUSH1 0x40 MLOAD DUP1 SWAP2 SUB SWAP1 RETURN JUMPDEST CALLVALUE DUP1 ISZERO PUSH2 0x17D JUMPI PUSH0 DUP1 REVERT JUMPDEST POP PUSH2 0x198 PUSH1 0x4 DUP1 CALLDATASIZE SUB DUP2 ADD SWAP1 PUSH2 0x193 SWAP2 SWAP1 PUSH2 0xA71 JUMP JUMPDEST PUSH2 0x6C9 JUMP JUMPDEST PUSH1 0x40 MLOAD PUSH2 0x1A5 SWAP2 SWAP1 PUSH2 0xABC JUMP JUMPDEST PUSH1 0x40 MLOAD DUP1 SWAP2 SUB SWAP1 RETURN JUMPDEST CALLVALUE DUP1 ISZERO PUSH2 0x1B9 JUMPI PUSH0 DUP1 REVERT JUMPDEST POP PUSH2 0x1C2 PUSH2 0x704 JUMP JUMPDEST PUSH1 0x40 MLOAD PUSH2 0x1CF SWAP2 SWAP1 PUSH2 0xABC JUMP JUMPDEST PUSH1 0x40 MLOAD DUP1 SWAP2 SUB SWAP1 RETURN JUMPDEST CALLVALUE DUP1 ISZERO PUSH2 0x1E3 JUMPI PUSH0 DUP1 REVERT JUMPDEST POP PUSH2 0x1FE PUSH1 0x4 DUP1 CALLDATASIZE SUB DUP2 ADD SWAP1 PUSH2 0x1F9 SWAP2 SWAP1 PUSH2 0xAFF JUMP JUMPDEST PUSH2 0x729 JUMP JUMPDEST PUSH1 0x40 MLOAD PUSH2 0x20B SWAP2 SWAP1 PUSH2 0xA2A JUMP JUMPDEST PUSH1 0x40 MLOAD DUP1 SWAP2 SUB SWAP1 RETURN JUMPDEST CALLVALUE DUP1 ISZERO PUSH2 0x21F JUMPI PUSH0 DUP1 REVERT JUMPDEST POP PUSH2 0x228 PUSH2 0x73E JUMP JUMPDEST PUSH1 0x40 MLOAD PUSH2 0x235 SWAP2 SWAP1 PUSH2 0xA2A JUMP JUMPDEST PUSH1 0x40 MLOAD DUP1 SWAP2 SUB SWAP1 RETURN JUMPDEST CALLVALUE DUP1 ISZERO PUSH2 0x249 JUMPI PUSH0 DUP1 REVERT JUMPDEST POP PUSH2 0x264 PUSH1 0x4 DUP1 CALLDATASIZE SUB DUP2 ADD SWAP1 PUSH2 0x25F SWAP2 SWAP1 PUSH2 0xA71 JUMP JUMPDEST PUSH2 0x744 JUMP JUMPDEST STOP JUMPDEST CALLVALUE DUP1 ISZERO PUSH2 0x271 JUMPI PUSH0 DUP1 REVERT JUMPDEST POP PUSH2 0x27A PUSH2 0x8FC JUMP JUMPDEST PUSH1 0x40 MLOAD PUSH2 0x287 SWAP2 SWAP1 PUSH2 0xBE1 JUMP JUMPDEST PUSH1 0x40 MLOAD DUP1 SWAP2 SUB SWAP1 RETURN JUMPDEST PUSH1 0x7 PUSH0 SWAP1 SLOAD SWAP1 PUSH2 0x100 EXP SWAP1 DIV PUSH1 0xFF AND DUP2 JUMP JUMPDEST PUSH1 0x3 SLOAD TIMESTAMP GT ISZERO PUSH2 0x2DE JUMPI PUSH1 0x40 MLOAD PUSH32 0xD02E774D00000000000000000000000000000000000000000000000000000000 DUP2 MSTORE PUSH1 0x4 ADD PUSH1 0x40 MLOAD DUP1 SWAP2 SUB SWAP1 REVERT JUMPDEST PUSH1 0x5 SLOAD CALLVALUE GT PUSH2 0x326 JUMPI PUSH1 0x5 SLOAD PUSH1 0x40 MLOAD PUSH32 0x4E12C1BB00000000000000000000000000000000000000000000000000000000 DUP2 MSTORE PUSH1 0x4 ADD PUSH2 0x31D SWAP2 SWAP1 PUSH2 0xA2A JUMP JUMPDEST PUSH1 0x40 MLOAD DUP1 SWAP2 SUB SWAP1 REVERT JUMPDEST PUSH0 PUSH1 0x5 SLOAD EQ PUSH2 0x3A6 JUMPI PUSH1 0x5 SLOAD PUSH1 0x6 PUSH0 PUSH1 0x4 PUSH0 SWAP1 SLOAD SWAP1 PUSH2 0x100 EXP SWAP1 DIV PUSH20 0xFFFFFFFFFFFFFFFFFFFFFFFFFFFFFFFFFFFFFFFF AND PUSH20 0xFFFFFFFFFFFFFFFFFFFFFFFFFFFFFFFFFFFFFFFF AND PUSH20 0xFFFFFFFFFFFFFFFFFFFFFFFFFFFFFFFFFFFFFFFF AND DUP2 MSTORE PUSH1 0x20 ADD SWAP1 DUP2 MSTORE PUSH1 0x20 ADD PUSH0 KECCAK256 PUSH0 DUP3 DUP3 SLOAD PUSH2 0x39E SWAP2 SWAP1 PUSH2 0xC2E JUMP JUMPDEST SWAP3 POP POP DUP2 SWAP1 SSTORE POP JUMPDEST CALLER PUSH1 0x4 PUSH0 PUSH2 0x100 EXP DUP2 SLOAD DUP2 PUSH20 0xFFFFFFFFFFFFFFFFFFFFFFFFFFFFFFFFFFFFFFFF MUL NOT AND SWAP1 DUP4 PUSH20 0xFFFFFFFFFFFFFFFFFFFFFFFFFFFFFFFFFFFFFFFF AND MUL OR SWAP1 SSTORE POP CALLVALUE PUSH1 0x5 DUP2 SWAP1 SSTORE POP PUSH32 0xF4757A49B326036464BEC6FE419A4AE38C8A02CE3E68BF0809674F6AAB8AD300 CALLER CALLVALUE PUSH1 0x40 MLOAD PUSH2 0x41E SWAP3 SWAP2 SWAP1 PUSH2 0xC61 JUMP JUMPDEST PUSH1 0x40 MLOAD DUP1 SWAP2 SUB SWAP1 LOG1 JUMP JUMPDEST PUSH1 0x3 SLOAD TIMESTAMP LT ISZERO PUSH2 0x464 JUMPI PUSH1 0x40 MLOAD PUSH32 0x44CEE29000000000000000000000000000000000000000000000000000000000 DUP2 MSTORE PUSH1 0x4 ADD PUSH1 0x40 MLOAD DUP1 SWAP2 SUB SWAP1 REVERT JUMPDEST PUSH1 0x7 PUSH0 SWAP1 SLOAD SWAP1 PUSH2 0x100 EXP SWAP1 DIV PUSH1 0xFF AND ISZERO PUSH2 0x4AA JUMPI PUSH1 0x40 MLOAD PUSH32 0x61CFDCF800000000000000000000000000000000000000000000000000000000 DUP2 MSTORE PUSH1 0x4 ADD PUSH1 0x40 MLOAD DUP1 SWAP2 SUB SWAP1 REVERT JUMPDEST PUSH1 0x1 PUSH1 0x7 PUSH0 PUSH2 0x100 EXP DUP2 SLOAD DUP2 PUSH1 0xFF MUL NOT AND SWAP1 DUP4 ISZERO ISZERO MUL OR SWAP1 SSTORE POP PUSH32 0xDAEC4582D5D9595688C8C98545FDD1C696D41C6AEAEB636737E84ED2F5C00EDA PUSH1 0x4 PUSH0 SWAP1 SLOAD SWAP1 PUSH2 0x100 EXP SWAP1 DIV PUSH20 0xFFFFFFFFFFFFFFFFFFFFFFFFFFFFFFFFFFFFFFFF AND PUSH1 0x5 SLOAD PUSH1 0x40 MLOAD PUSH2 0x518 SWAP3 SWAP2 SWAP1 PUSH2 0xC61 JUMP JUMPDEST PUSH1 0x40 MLOAD DUP1 SWAP2 SUB SWAP1 LOG1 PUSH0 DUP1 SLOAD SWAP1 PUSH2 0x100 EXP SWAP1 DIV PUSH20 0xFFFFFFFFFFFFFFFFFFFFFFFFFFFFFFFFFFFFFFFF AND PUSH20 0xFFFFFFFFFFFFFFFFFFFFFFFFFFFFFFFFFFFFFFFF AND PUSH2 0x8FC PUSH1 0x5 SLOAD SWAP1 DUP2 ISZERO MUL SWAP1 PUSH1 0x40 MLOAD PUSH0 PUSH1 0x40 MLOAD DUP1 DUP4 SUB DUP2 DUP6 DUP9 DUP9 CALL SWAP4 POP POP POP POP ISZERO DUP1 ISZERO PUSH2 0x584 JUMPI RETURNDATASIZE PUSH0 DUP1 RETURNDATACOPY RETURNDATASIZE PUSH0 REVERT JUMPDEST POP JUMP JUMPDEST PUSH0 DUP1 SLOAD SWAP1 PUSH2 0x100 EXP SWAP1 DIV PUSH20 0xFFFFFFFFFFFFFFFFFFFFFFFFFFFFFFFFFFFFFFFF AND DUP2 JUMP JUMPDEST PUSH0 DUP1 PUSH1 0x6 PUSH0 CALLER PUSH20 0xFFFFFFFFFFFFFFFFFFFFFFFFFFFFFFFFFFFFFFFF AND PUSH20 0xFFFFFFFFFFFFFFFFFFFFFFFFFFFFFFFFFFFFFFFF AND DUP2 MSTORE PUSH1 0x20 ADD SWAP1 DUP2 MSTORE PUSH1 0x20 ADD PUSH0 KECCAK256 SLOAD SWAP1 POP PUSH0 DUP2 GT ISZERO PUSH2 0x6BA JUMPI PUSH0 PUSH1 0x6 PUSH0 CALLER PUSH20 0xFFFFFFFFFFFFFFFFFFFFFFFFFFFFFFFFFFFFFFFF AND PUSH20 0xFFFFFFFFFFFFFFFFFFFFFFFFFFFFFFFFFFFFFFFF AND DUP2 MSTORE PUSH1 0x20 ADD SWAP1 DUP2 MSTORE PUSH1 0x20 ADD PUSH0 KECCAK256 DUP2 SWAP1 SSTORE POP CALLER PUSH20 0xFFFFFFFFFFFFFFFFFFFFFFFFFFFFFFFFFFFFFFFF AND PUSH2 0x8FC DUP3 SWAP1 DUP2 ISZERO MUL SWAP1 PUSH1 0x40 MLOAD PUSH0 PUSH1 0x40 MLOAD DUP1 DUP4 SUB DUP2 DUP6 DUP9 DUP9 CALL SWAP4 POP POP POP POP PUSH2 0x6B9 JUMPI DUP1 PUSH1 0x6 PUSH0 CALLER PUSH20 0xFFFFFFFFFFFFFFFFFFFFFFFFFFFFFFFFFFFFFFFF AND PUSH20 0xFFFFFFFFFFFFFFFFFFFFFFFFFFFFFFFFFFFFFFFF AND DUP2 MSTORE PUSH1 0x20 ADD SWAP1 DUP2 MSTORE PUSH1 0x20 ADD PUSH0 KECCAK256 DUP2 SWAP1 SSTORE POP PUSH0 SWAP2 POP POP PUSH2 0x6C0 JUMP JUMPDEST JUMPDEST PUSH1 0x1 SWAP2 POP POP JUMPDEST SWAP1 JUMP JUMPDEST PUSH1 0x3 SLOAD DUP2 JUMP JUMPDEST PUSH1 0x2 DUP2 DUP2 SLOAD DUP2 LT PUSH2 0x6D8 JUMPI PUSH0 DUP1 REVERT JUMPDEST SWAP1 PUSH0 MSTORE PUSH1 0x20 PUSH0 KECCAK256 ADD PUSH0 SWAP2 POP SLOAD SWAP1 PUSH2 0x100 EXP SWAP1 DIV PUSH20 0xFFFFFFFFFFFFFFFFFFFFFFFFFFFFFFFFFFFFFFFF AND DUP2 JUMP JUMPDEST PUSH1 0x4 PUSH0 SWAP1 SLOAD SWAP1 PUSH2 0x100 EXP SWAP1 DIV PUSH20 0xFFFFFFFFFFFFFFFFFFFFFFFFFFFFFFFFFFFFFFFF AND DUP2 JUMP JUMPDEST PUSH1 0x1 PUSH1 0x20 MSTORE DUP1 PUSH0 MSTORE PUSH1 0x40 PUSH0 KECCAK256 PUSH0 SWAP2 POP SWAP1 POP SLOAD DUP2 JUMP JUMPDEST PUSH1 0x5 SLOAD DUP2 JUMP JUMPDEST PUSH0 DUP2 GT DUP1 ISZERO PUSH2 0x754 JUMPI POP PUSH1 0x5 DUP2 GT ISZERO JUMPDEST PUSH2 0x793 JUMPI PUSH1 0x40 MLOAD PUSH32 0x8C379A000000000000000000000000000000000000000000000000000000000 DUP2 MSTORE PUSH1 0x4 ADD PUSH2 0x78A SWAP1 PUSH2 0xCE2 JUMP JUMPDEST PUSH1 0x40 MLOAD DUP1 SWAP2 SUB SWAP1 REVERT JUMPDEST PUSH0 PUSH1 0x6 PUSH0 CALLER PUSH20 0xFFFFFFFFFFFFFFFFFFFFFFFFFFFFFFFFFFFFFFFF AND PUSH20 0xFFFFFFFFFFFFFFFFFFFFFFFFFFFFFFFFFFFFFFFF AND DUP2 MSTORE PUSH1 0x20 ADD SWAP1 DUP2 MSTORE PUSH1 0x20 ADD PUSH0 KECCAK256 SLOAD SUB PUSH2 0x812 JUMPI PUSH1 0x40 MLOAD PUSH32 0x8C379A000000000000000000000000000000000000000000000000000000000 DUP2 MSTORE PUSH1 0x4 ADD PUSH2 0x809 SWAP1 PUSH2 0xD70 JUMP JUMPDEST PUSH1 0x40 MLOAD DUP1 SWAP2 SUB SWAP1 REVERT JUMPDEST PUSH0 PUSH1 0x1 PUSH0 CALLER PUSH20 0xFFFFFFFFFFFFFFFFFFFFFFFFFFFFFFFFFFFFFFFF AND PUSH20 0xFFFFFFFFFFFFFFFFFFFFFFFFFFFFFFFFFFFFFFFF AND DUP2 MSTORE PUSH1 0x20 ADD SWAP1 DUP2 MSTORE PUSH1 0x20 ADD PUSH0 KECCAK256 SLOAD EQ PUSH2 0x8B7 JUMPI PUSH1 0x2 CALLER SWAP1 DUP1 PUSH1 0x1 DUP2 SLOAD ADD DUP1 DUP3 SSTORE DUP1 SWAP2 POP POP PUSH1 0x1 SWAP1 SUB SWAP1 PUSH0 MSTORE PUSH1 0x20 PUSH0 KECCAK256 ADD PUSH0 SWAP1 SWAP2 SWAP1 SWAP2 SWAP1 SWAP2 PUSH2 0x100 EXP DUP2 SLOAD DUP2 PUSH20 0xFFFFFFFFFFFFFFFFFFFFFFFFFFFFFFFFFFFFFFFF MUL NOT AND SWAP1 DUP4 PUSH20 0xFFFFFFFFFFFFFFFFFFFFFFFFFFFFFFFFFFFFFFFF AND MUL OR SWAP1 SSTORE POP JUMPDEST DUP1 PUSH1 0x1 PUSH0 CALLER PUSH20 0xFFFFFFFFFFFFFFFFFFFFFFFFFFFFFFFFFFFFFFFF AND PUSH20 0xFFFFFFFFFFFFFFFFFFFFFFFFFFFFFFFFFFFFFFFF AND DUP2 MSTORE PUSH1 0x20 ADD SWAP1 DUP2 MSTORE PUSH1 0x20 ADD PUSH0 KECCAK256 DUP2 SWAP1 SSTORE POP POP JUMP JUMPDEST PUSH1 0x60 PUSH1 0x2 DUP1 SLOAD DUP1 PUSH1 0x20 MUL PUSH1 0x20 ADD PUSH1 0x40 MLOAD SWAP1 DUP2 ADD PUSH1 0x40 MSTORE DUP1 SWAP3 SWAP2 SWAP1 DUP2 DUP2 MSTORE PUSH1 0x20 ADD DUP3 DUP1 SLOAD DUP1 ISZERO PUSH2 0x97D JUMPI PUSH1 0x20 MUL DUP3 ADD SWAP2 SWAP1 PUSH0 MSTORE PUSH1 0x20 PUSH0 KECCAK256 SWAP1 JUMPDEST DUP2 PUSH0 SWAP1 SLOAD SWAP1 PUSH2 0x100 EXP SWAP1 DIV PUSH20 0xFFFFFFFFFFFFFFFFFFFFFFFFFFFFFFFFFFFFFFFF AND PUSH20 0xFFFFFFFFFFFFFFFFFFFFFFFFFFFFFFFFFFFFFFFF AND DUP2 MSTORE PUSH1 0x20 ADD SWAP1 PUSH1 0x1 ADD SWAP1 DUP1 DUP4 GT PUSH2 0x934 JUMPI JUMPDEST POP POP POP POP POP SWAP1 POP SWAP1 JUMP JUMPDEST PUSH0 DUP2 ISZERO ISZERO SWAP1 POP SWAP2 SWAP1 POP JUMP JUMPDEST PUSH2 0x99B DUP2 PUSH2 0x987 JUMP JUMPDEST DUP3 MSTORE POP POP JUMP JUMPDEST PUSH0 PUSH1 0x20 DUP3 ADD SWAP1 POP PUSH2 0x9B4 PUSH0 DUP4 ADD DUP5 PUSH2 0x992 JUMP JUMPDEST SWAP3 SWAP2 POP POP JUMP JUMPDEST PUSH0 PUSH20 0xFFFFFFFFFFFFFFFFFFFFFFFFFFFFFFFFFFFFFFFF DUP3 AND SWAP1 POP SWAP2 SWAP1 POP JUMP JUMPDEST PUSH0 PUSH2 0x9E3 DUP3 PUSH2 0x9BA JUMP JUMPDEST SWAP1 POP SWAP2 SWAP1 POP JUMP JUMPDEST PUSH2 0x9F3 DUP2 PUSH2 0x9D9 JUMP JUMPDEST DUP3 MSTORE POP POP JUMP JUMPDEST PUSH0 PUSH1 0x20 DUP3 ADD SWAP1 POP PUSH2 0xA0C PUSH0 DUP4 ADD DUP5 PUSH2 0x9EA JUMP JUMPDEST SWAP3 SWAP2 POP POP JUMP JUMPDEST PUSH0 DUP2 SWAP1 POP SWAP2 SWAP1 POP JUMP JUMPDEST PUSH2 0xA24 DUP2 PUSH2 0xA12 JUMP JUMPDEST DUP3 MSTORE POP POP JUMP JUMPDEST PUSH0 PUSH1 0x20 DUP3 ADD SWAP1 POP PUSH2 0xA3D PUSH0 DUP4 ADD DUP5 PUSH2 0xA1B JUMP JUMPDEST SWAP3 SWAP2 POP POP JUMP JUMPDEST PUSH0 DUP1 REVERT JUMPDEST PUSH2 0xA50 DUP2 PUSH2 0xA12 JUMP JUMPDEST DUP2 EQ PUSH2 0xA5A JUMPI PUSH0 DUP1 REVERT JUMPDEST POP JUMP JUMPDEST PUSH0 DUP2 CALLDATALOAD SWAP1 POP PUSH2 0xA6B DUP2 PUSH2 0xA47 JUMP JUMPDEST SWAP3 SWAP2 POP POP JUMP JUMPDEST PUSH0 PUSH1 0x20 DUP3 DUP5 SUB SLT ISZERO PUSH2 0xA86 JUMPI PUSH2 0xA85 PUSH2 0xA43 JUMP JUMPDEST JUMPDEST PUSH0 PUSH2 0xA93 DUP5 DUP3 DUP6 ADD PUSH2 0xA5D JUMP JUMPDEST SWAP2 POP POP SWAP3 SWAP2 POP POP JUMP JUMPDEST PUSH0 PUSH2 0xAA6 DUP3 PUSH2 0x9BA JUMP JUMPDEST SWAP1 POP SWAP2 SWAP1 POP JUMP JUMPDEST PUSH2 0xAB6 DUP2 PUSH2 0xA9C JUMP JUMPDEST DUP3 MSTORE POP POP JUMP JUMPDEST PUSH0 PUSH1 0x20 DUP3 ADD SWAP1 POP PUSH2 0xACF PUSH0 DUP4 ADD DUP5 PUSH2 0xAAD JUMP JUMPDEST SWAP3 SWAP2 POP POP JUMP JUMPDEST PUSH2 0xADE DUP2 PUSH2 0xA9C JUMP JUMPDEST DUP2 EQ PUSH2 0xAE8 JUMPI PUSH0 DUP1 REVERT JUMPDEST POP JUMP JUMPDEST PUSH0 DUP2 CALLDATALOAD SWAP1 POP PUSH2 0xAF9 DUP2 PUSH2 0xAD5 JUMP JUMPDEST SWAP3 SWAP2 POP POP JUMP JUMPDEST PUSH0 PUSH1 0x20 DUP3 DUP5 SUB SLT ISZERO PUSH2 0xB14 JUMPI PUSH2 0xB13 PUSH2 0xA43 JUMP JUMPDEST JUMPDEST PUSH0 PUSH2 0xB21 DUP5 DUP3 DUP6 ADD PUSH2 0xAEB JUMP JUMPDEST SWAP2 POP POP SWAP3 SWAP2 POP POP JUMP JUMPDEST PUSH0 DUP2 MLOAD SWAP1 POP SWAP2 SWAP1 POP JUMP JUMPDEST PUSH0 DUP3 DUP3 MSTORE PUSH1 0x20 DUP3 ADD SWAP1 POP SWAP3 SWAP2 POP POP JUMP JUMPDEST PUSH0 DUP2 SWAP1 POP PUSH1 0x20 DUP3 ADD SWAP1 POP SWAP2 SWAP1 POP JUMP JUMPDEST PUSH2 0xB5C DUP2 PUSH2 0xA9C JUMP JUMPDEST DUP3 MSTORE POP POP JUMP JUMPDEST PUSH0 PUSH2 0xB6D DUP4 DUP4 PUSH2 0xB53 JUMP JUMPDEST PUSH1 0x20 DUP4 ADD SWAP1 POP SWAP3 SWAP2 POP POP JUMP JUMPDEST PUSH0 PUSH1 0x20 DUP3 ADD SWAP1 POP SWAP2 SWAP1 POP JUMP JUMPDEST PUSH0 PUSH2 0xB8F DUP3 PUSH2 0xB2A JUMP JUMPDEST PUSH2 0xB99 DUP2 DUP6 PUSH2 0xB34 JUMP JUMPDEST SWAP4 POP PUSH2 0xBA4 DUP4 PUSH2 0xB44 JUMP JUMPDEST DUP1 PUSH0 JUMPDEST DUP4 DUP2 LT ISZERO PUSH2 0xBD4 JUMPI DUP2 MLOAD PUSH2 0xBBB DUP9 DUP3 PUSH2 0xB62 JUMP JUMPDEST SWAP8 POP PUSH2 0xBC6 DUP4 PUSH2 0xB79 JUMP JUMPDEST SWAP3 POP POP PUSH1 0x1 DUP2 ADD SWAP1 POP PUSH2 0xBA7 JUMP JUMPDEST POP DUP6 SWAP4 POP POP POP POP SWAP3 SWAP2 POP POP JUMP JUMPDEST PUSH0 PUSH1 0x20 DUP3 ADD SWAP1 POP DUP2 DUP2 SUB PUSH0 DUP4 ADD MSTORE PUSH2 0xBF9 DUP2 DUP5 PUSH2 0xB85 JUMP JUMPDEST SWAP1 POP SWAP3 SWAP2 POP POP JUMP JUMPDEST PUSH32 0x4E487B7100000000000000000000000000000000000000000000000000000000 PUSH0 MSTORE PUSH1 0x11 PUSH1 0x4 MSTORE PUSH1 0x24 PUSH0 REVERT JUMPDEST PUSH0 PUSH2 0xC38 DUP3 PUSH2 0xA12 JUMP JUMPDEST SWAP2 POP PUSH2 0xC43 DUP4 PUSH2 0xA12 JUMP JUMPDEST SWAP3 POP DUP3 DUP3 ADD SWAP1 POP DUP1 DUP3 GT ISZERO PUSH2 0xC5B JUMPI PUSH2 0xC5A PUSH2 0xC01 JUMP JUMPDEST JUMPDEST SWAP3 SWAP2 POP POP JUMP JUMPDEST PUSH0 PUSH1 0x40 DUP3 ADD SWAP1 POP PUSH2 0xC74 PUSH0 DUP4 ADD DUP6 PUSH2 0xAAD JUMP JUMPDEST PUSH2 0xC81 PUSH1 0x20 DUP4 ADD DUP5 PUSH2 0xA1B JUMP JUMPDEST SWAP4 SWAP3 POP POP POP JUMP JUMPDEST PUSH0 DUP3 DUP3 MSTORE PUSH1 0x20 DUP3 ADD SWAP1 POP SWAP3 SWAP2 POP POP JUMP JUMPDEST PUSH32 0x526174696E67206D7573742062652066726F6D203120746F20352E0000000000 PUSH0 DUP3 ADD MSTORE POP JUMP JUMPDEST PUSH0 PUSH2 0xCCC PUSH1 0x1B DUP4 PUSH2 0xC88 JUMP JUMPDEST SWAP2 POP PUSH2 0xCD7 DUP3 PUSH2 0xC98 JUMP JUMPDEST PUSH1 0x20 DUP3 ADD SWAP1 POP SWAP2 SWAP1 POP JUMP JUMPDEST PUSH0 PUSH1 0x20 DUP3 ADD SWAP1 POP DUP2 DUP2 SUB PUSH0 DUP4 ADD MSTORE PUSH2 0xCF9 DUP2 PUSH2 0xCC0 JUMP JUMPDEST SWAP1 POP SWAP2 SWAP1 POP JUMP JUMPDEST PUSH32 0x596F752063616E2072617465206F6E6C7920696620796F752068617665207072 PUSH0 DUP3 ADD MSTORE PUSH32 0x6576696F75736C79206269642E00000000000000000000000000000000000000 PUSH1 0x20 DUP3 ADD MSTORE POP JUMP JUMPDEST PUSH0 PUSH2 0xD5A PUSH1 0x2D DUP4 PUSH2 0xC88 JUMP JUMPDEST SWAP2 POP PUSH2 0xD65 DUP3 PUSH2 0xD00 JUMP JUMPDEST PUSH1 0x40 DUP3 ADD SWAP1 POP SWAP2 SWAP1 POP JUMP JUMPDEST PUSH0 PUSH1 0x20 DUP3 ADD SWAP1 POP DUP2 DUP2 SUB PUSH0 DUP4 ADD MSTORE PUSH2 0xD87 DUP2 PUSH2 0xD4E JUMP JUMPDEST SWAP1 POP SWAP2 SWAP1 POP JUMP INVALID LOG2 PUSH5 0x6970667358 0x22 SLT KECCAK256 PUSH9 0x5ED012FC87C1D0B6AC STOP MULMOD 0xDD PUSH10 0xBD9EFEE0131E6640FA87 POP MSTORE8 0x2B CALLER 0xCE 0xAA 0x23 DIV PUSH5 0x736F6C6343 STOP ADDMOD BYTE STOP CALLER "
				},
				"gasEstimates": {
					"creation": {
						"codeDepositCost": "704800",
						"executionCost": "infinite",
						"totalCost": "infinite"
					},
					"external": {
						"auctionEnd()": "infinite",
						"auctionEndTime()": "2536",
						"beneficiary()": "2572",
						"bid()": "infinite",
						"ended()": "2467",
						"getRaters()": "infinite",
						"highestBid()": "2491",
						"highestBidder()": "2530",
						"rate(uint256)": "75739",
						"raters(uint256)": "4944",
						"ratings(address)": "2846",
						"withdraw()": "infinite"
					}
				},
				"methodIdentifiers": {
					"auctionEnd()": "2a24f46c",
					"auctionEndTime()": "4b449cba",
					"beneficiary()": "38af3eed",
					"bid()": "1998aeef",
					"ended()": "12fa6feb",
					"getRaters()": "ef9973ba",
					"highestBid()": "d57bde79",
					"highestBidder()": "91f90157",
					"rate(uint256)": "e7ee6ad6",
					"raters(uint256)": "8463b38b",
					"ratings(address)": "9e01dfbb",
					"withdraw()": "3ccfd60b"
				}
			},
			"storageLayout": {
				"storage": [
					{
						"astId": 339,
						"contract": "auction.sol:Auction",
						"label": "beneficiary",
						"offset": 0,
						"slot": "0",
						"type": "t_address_payable"
					},
					{
						"astId": 343,
						"contract": "auction.sol:Auction",
						"label": "ratings",
						"offset": 0,
						"slot": "1",
						"type": "t_mapping(t_address,t_uint256)"
					},
					{
						"astId": 346,
						"contract": "auction.sol:Auction",
						"label": "raters",
						"offset": 0,
						"slot": "2",
						"type": "t_array(t_address)dyn_storage"
					},
					{
						"astId": 348,
						"contract": "auction.sol:Auction",
						"label": "auctionEndTime",
						"offset": 0,
						"slot": "3",
						"type": "t_uint256"
					},
					{
						"astId": 350,
						"contract": "auction.sol:Auction",
						"label": "highestBidder",
						"offset": 0,
						"slot": "4",
						"type": "t_address"
					},
					{
						"astId": 352,
						"contract": "auction.sol:Auction",
						"label": "highestBid",
						"offset": 0,
						"slot": "5",
						"type": "t_uint256"
					},
					{
						"astId": 356,
						"contract": "auction.sol:Auction",
						"label": "pendingReturns",
						"offset": 0,
						"slot": "6",
						"type": "t_mapping(t_address,t_uint256)"
					},
					{
						"astId": 358,
						"contract": "auction.sol:Auction",
						"label": "ended",
						"offset": 0,
						"slot": "7",
						"type": "t_bool"
					}
				],
				"types": {
					"t_address": {
						"encoding": "inplace",
						"label": "address",
						"numberOfBytes": "20"
					},
					"t_address_payable": {
						"encoding": "inplace",
						"label": "address payable",
						"numberOfBytes": "20"
					},
					"t_array(t_address)dyn_storage": {
						"base": "t_address",
						"encoding": "dynamic_array",
						"label": "address[]",
						"numberOfBytes": "32"
					},
					"t_bool": {
						"encoding": "inplace",
						"label": "bool",
						"numberOfBytes": "1"
					},
					"t_mapping(t_address,t_uint256)": {
						"encoding": "mapping",
						"key": "t_address",
						"label": "mapping(address => uint256)",
						"numberOfBytes": "32",
						"value": "t_uint256"
					},
					"t_uint256": {
						"encoding": "inplace",
						"label": "uint256",
						"numberOfBytes": "32"
					}
				}
			},
			"userdoc": {
				"errors": {
					"AuctionAlreadyEnded()": [
						{
							"notice": "The auction has already ended."
						}
					],
					"AuctionEndAlreadyCalled()": [
						{
							"notice": "The function auctionEnd has already been called."
						}
					],
					"AuctionNotYetEnded()": [
						{
							"notice": "The auction has not ended yet."
						}
					],
					"BidNotHighEnough(uint256)": [
						{
							"notice": "There is already a higher or equal bid."
						}
					]
				},
				"kind": "user",
				"methods": {
					"auctionEnd()": {
						"notice": "End the auction and send the highest bid to the beneficiary."
					},
					"bid()": {
						"notice": "Bid on the auction with the value sent together with this transaction. The value will only be refunded if the auction is not won."
					},
					"constructor": {
						"notice": "Create a simple auction with `biddingTime` seconds bidding time on behalf of the beneficiary address `beneficiaryAddress`."
					},
					"withdraw()": {
						"notice": "Withdraw a bid that was overbid."
					}
				},
				"version": 1
			}
		}
	}
}