{
  "_format": "hh-sol-artifact-1",
  "contractName": "Auction",
  "sourceName": "contracts/Auction.sol",
  "abi": [
    {
      "inputs": [
        {
          "internalType": "uint256",
          "name": "biddingTime",
          "type": "uint256"
        },
        {
          "internalType": "address payable",
          "name": "beneficiaryAddress",
          "type": "address"
        }
      ],
      "stateMutability": "nonpayable",
      "type": "constructor"
    },
    {
      "inputs": [],
      "name": "AuctionAlreadyEnded",
      "type": "error"
    },
    {
      "inputs": [],
      "name": "AuctionEndAlreadyCalled",
      "type": "error"
    },
    {
      "inputs": [],
      "name": "AuctionNotYetEnded",
      "type": "error"
    },
    {
      "inputs": [
        {
          "internalType": "uint256",
          "name": "highestBid",
          "type": "uint256"
        }
      ],
      "name": "BidNotHighEnough",
      "type": "error"
    },
    {
      "anonymous": false,
      "inputs": [
        {
          "indexed": false,
          "internalType": "address",
          "name": "winner",
          "type": "address"
        },
        {
          "indexed": false,
          "internalType": "uint256",
          "name": "amount",
          "type": "uint256"
        }
      ],
      "name": "AuctionEnded",
      "type": "event"
    },
    {
      "anonymous": false,
      "inputs": [
        {
          "indexed": false,
          "internalType": "address",
          "name": "bidder",
          "type": "address"
        },
        {
          "indexed": false,
          "internalType": "uint256",
          "name": "amount",
          "type": "uint256"
        }
      ],
      "name": "HighestBidIncreased",
      "type": "event"
    },
    {
      "inputs": [],
      "name": "auctionEnd",
      "outputs": [],
      "stateMutability": "nonpayable",
      "type": "function"
    },
    {
      "inputs": [],
      "name": "auctionEndTime",
      "outputs": [
        {
          "internalType": "uint256",
          "name": "",
          "type": "uint256"
        }
      ],
      "stateMutability": "view",
      "type": "function"
    },
    {
      "inputs": [],
      "name": "beneficiary",
      "outputs": [
        {
          "internalType": "address payable",
          "name": "",
          "type": "address"
        }
      ],
      "stateMutability": "view",
      "type": "function"
    },
    {
      "inputs": [],
      "name": "bid",
      "outputs": [],
      "stateMutability": "payable",
      "type": "function"
    },
    {
      "inputs": [],
      "name": "ended",
      "outputs": [
        {
          "internalType": "bool",
          "name": "",
          "type": "bool"
        }
      ],
      "stateMutability": "view",
      "type": "function"
    },
    {
      "inputs": [
        {
          "internalType": "address",
          "name": "bidder",
          "type": "address"
        }
      ],
      "name": "getPendingReturnForBidder",
      "outputs": [
        {
          "internalType": "uint256",
          "name": "",
          "type": "uint256"
        }
      ],
      "stateMutability": "view",
      "type": "function"
    },
    {
      "inputs": [],
      "name": "getRaters",
      "outputs": [
        {
          "internalType": "address[]",
          "name": "",
          "type": "address[]"
        }
      ],
      "stateMutability": "view",
      "type": "function"
    },
    {
      "inputs": [],
      "name": "highestBid",
      "outputs": [
        {
          "internalType": "uint256",
          "name": "",
          "type": "uint256"
        }
      ],
      "stateMutability": "view",
      "type": "function"
    },
    {
      "inputs": [],
      "name": "highestBidder",
      "outputs": [
        {
          "internalType": "address",
          "name": "",
          "type": "address"
        }
      ],
      "stateMutability": "view",
      "type": "function"
    },
    {
      "inputs": [
        {
          "internalType": "uint256",
          "name": "rating",
          "type": "uint256"
        }
      ],
      "name": "rate",
      "outputs": [],
      "stateMutability": "nonpayable",
      "type": "function"
    },
    {
      "inputs": [
        {
          "internalType": "uint256",
          "name": "",
          "type": "uint256"
        }
      ],
      "name": "raters",
      "outputs": [
        {
          "internalType": "address",
          "name": "",
          "type": "address"
        }
      ],
      "stateMutability": "view",
      "type": "function"
    },
    {
      "inputs": [
        {
          "internalType": "address",
          "name": "",
          "type": "address"
        }
      ],
      "name": "ratings",
      "outputs": [
        {
          "internalType": "uint256",
          "name": "",
          "type": "uint256"
        }
      ],
      "stateMutability": "view",
      "type": "function"
    },
    {
      "inputs": [],
      "name": "withdraw",
      "outputs": [
        {
          "internalType": "bool",
          "name": "",
          "type": "bool"
        }
      ],
      "stateMutability": "nonpayable",
      "type": "function"
    }
  ],
  "bytecode": "0x60806040523480156200001157600080fd5b506040516200156c3803806200156c8339818101604052810190620000379190620000c1565b806000806101000a81548173ffffffffffffffffffffffffffffffffffffffff021916908373ffffffffffffffffffffffffffffffffffffffff160217905550814262000085919062000102565b600381905550505062000200565b600081519050620000a481620001cc565b92915050565b600081519050620000bb81620001e6565b92915050565b60008060408385031215620000d557600080fd5b6000620000e585828601620000aa565b9250506020620000f88582860162000093565b9150509250929050565b60006200010f8262000193565b91506200011c8362000193565b9250827fffffffffffffffffffffffffffffffffffffffffffffffffffffffffffffffff038211156200015457620001536200019d565b5b828201905092915050565b60006200016c8262000173565b9050919050565b600073ffffffffffffffffffffffffffffffffffffffff82169050919050565b6000819050919050565b7f4e487b7100000000000000000000000000000000000000000000000000000000600052601160045260246000fd5b620001d7816200015f565b8114620001e357600080fd5b50565b620001f18162000193565b8114620001fd57600080fd5b50565b61135c80620002106000396000f3fe6080604052600436106100c25760003560e01c80634b449cba1161007f5780639e01dfbb116100595780639e01dfbb14610239578063d57bde7914610276578063e7ee6ad6146102a1578063ef9973ba146102ca576100c2565b80634b449cba146101a65780638463b38b146101d157806391f901571461020e576100c2565b806312fa6feb146100c75780631998aeef146100f257806321805205146100fc5780632a24f46c1461013957806338af3eed146101505780633ccfd60b1461017b575b600080fd5b3480156100d357600080fd5b506100dc6102f5565b6040516100e99190610f4b565b60405180910390f35b6100fa610308565b005b34801561010857600080fd5b50610123600480360381019061011e9190610ce5565b610523565b6040516101309190611026565b60405180910390f35b34801561014557600080fd5b5061014e61056c565b005b34801561015c57600080fd5b50610165610760565b6040516101729190610ee5565b60405180910390f35b34801561018757600080fd5b50610190610784565b60405161019d9190610f4b565b60405180910390f35b3480156101b257600080fd5b506101bb6108a8565b6040516101c89190611026565b60405180910390f35b3480156101dd57600080fd5b506101f860048036038101906101f39190610d0e565b6108ae565b6040516102059190610eca565b60405180910390f35b34801561021a57600080fd5b506102236108ed565b6040516102309190610eca565b60405180910390f35b34801561024557600080fd5b50610260600480360381019061025b9190610ce5565b610913565b60405161026d9190611026565b60405180910390f35b34801561028257600080fd5b5061028b61092b565b6040516102989190611026565b60405180910390f35b3480156102ad57600080fd5b506102c860048036038101906102c39190610d0e565b610931565b005b3480156102d657600080fd5b506102df610c2d565b6040516102ec9190610f29565b60405180910390f35b600760009054906101000a900460ff1681565b600354421115610344576040517fd02e774d00000000000000000000000000000000000000000000000000000000815260040160405180910390fd5b60008054906101000a900473ffffffffffffffffffffffffffffffffffffffff1673ffffffffffffffffffffffffffffffffffffffff163373ffffffffffffffffffffffffffffffffffffffff1614156103d3576040517f08c379a00000000000000000000000000000000000000000000000000000000081526004016103ca90610f66565b60405180910390fd5b600554341161041b576005546040517f4e12c1bb0000000000000000000000000000000000000000000000000000000081526004016104129190611026565b60405180910390fd5b6000600554146104a05760055460066000600460009054906101000a900473ffffffffffffffffffffffffffffffffffffffff1673ffffffffffffffffffffffffffffffffffffffff1673ffffffffffffffffffffffffffffffffffffffff1681526020019081526020016000206000828254610498919061108b565b925050819055505b33600460006101000a81548173ffffffffffffffffffffffffffffffffffffffff021916908373ffffffffffffffffffffffffffffffffffffffff160217905550346005819055507ff4757a49b326036464bec6fe419a4ae38c8a02ce3e68bf0809674f6aab8ad3003334604051610519929190610f00565b60405180910390a1565b6000600660008373ffffffffffffffffffffffffffffffffffffffff1673ffffffffffffffffffffffffffffffffffffffff168152602001908152602001600020549050919050565b6003544210156105a8576040517f44cee29000000000000000000000000000000000000000000000000000000000815260040160405180910390fd5b600760009054906101000a900460ff16156105ef576040517f61cfdcf800000000000000000000000000000000000000000000000000000000815260040160405180910390fd5b3373ffffffffffffffffffffffffffffffffffffffff1660008054906101000a900473ffffffffffffffffffffffffffffffffffffffff1673ffffffffffffffffffffffffffffffffffffffff161461067d576040517f08c379a000000000000000000000000000000000000000000000000000000000815260040161067490610fc6565b60405180910390fd5b6001600760006101000a81548160ff0219169083151502179055507fdaec4582d5d9595688c8c98545fdd1c696d41c6aeaeb636737e84ed2f5c00eda600460009054906101000a900473ffffffffffffffffffffffffffffffffffffffff166005546040516106ed929190610f00565b60405180910390a160008054906101000a900473ffffffffffffffffffffffffffffffffffffffff1673ffffffffffffffffffffffffffffffffffffffff166108fc6005549081150290604051600060405180830381858888f1935050505015801561075d573d6000803e3d6000fd5b50565b60008054906101000a900473ffffffffffffffffffffffffffffffffffffffff1681565b600080600660003373ffffffffffffffffffffffffffffffffffffffff1673ffffffffffffffffffffffffffffffffffffffff168152602001908152602001600020549050600081111561089f576000600660003373ffffffffffffffffffffffffffffffffffffffff1673ffffffffffffffffffffffffffffffffffffffff168152602001908152602001600020819055503373ffffffffffffffffffffffffffffffffffffffff166108fc829081150290604051600060405180830381858888f1935050505061089e5780600660003373ffffffffffffffffffffffffffffffffffffffff1673ffffffffffffffffffffffffffffffffffffffff1681526020019081526020016000208190555060009150506108a5565b5b60019150505b90565b60035481565b600281815481106108be57600080fd5b906000526020600020016000915054906101000a900473ffffffffffffffffffffffffffffffffffffffff1681565b600460009054906101000a900473ffffffffffffffffffffffffffffffffffffffff1681565b60016020528060005260406000206000915090505481565b60055481565b600081118015610942575060058111155b610981576040517f08c379a000000000000000000000000000000000000000000000000000000000815260040161097890610fe6565b60405180910390fd5b6000600660003373ffffffffffffffffffffffffffffffffffffffff1673ffffffffffffffffffffffffffffffffffffffff16815260200190815260200160002054141580610a1d57503373ffffffffffffffffffffffffffffffffffffffff16600460009054906101000a900473ffffffffffffffffffffffffffffffffffffffff1673ffffffffffffffffffffffffffffffffffffffff16145b610a5c576040517f08c379a0000000000000000000000000000000000000000000000000000000008152600401610a5390610f86565b60405180910390fd5b3373ffffffffffffffffffffffffffffffffffffffff1660008054906101000a900473ffffffffffffffffffffffffffffffffffffffff1673ffffffffffffffffffffffffffffffffffffffff161415610aeb576040517f08c379a0000000000000000000000000000000000000000000000000000000008152600401610ae290611006565b60405180910390fd5b600760009054906101000a900460ff16610b3a576040517f08c379a0000000000000000000000000000000000000000000000000000000008152600401610b3190610fa6565b60405180910390fd5b6000600160003373ffffffffffffffffffffffffffffffffffffffff1673ffffffffffffffffffffffffffffffffffffffff168152602001908152602001600020541415610be6576002339080600181540180825580915050600190039060005260206000200160009091909190916101000a81548173ffffffffffffffffffffffffffffffffffffffff021916908373ffffffffffffffffffffffffffffffffffffffff1602179055505b80600160003373ffffffffffffffffffffffffffffffffffffffff1673ffffffffffffffffffffffffffffffffffffffff1681526020019081526020016000208190555050565b60606002805480602002602001604051908101604052809291908181526020018280548015610cb157602002820191906000526020600020905b8160009054906101000a900473ffffffffffffffffffffffffffffffffffffffff1673ffffffffffffffffffffffffffffffffffffffff1681526020019060010190808311610c67575b5050505050905090565b600081359050610cca816112f8565b92915050565b600081359050610cdf8161130f565b92915050565b600060208284031215610cf757600080fd5b6000610d0584828501610cbb565b91505092915050565b600060208284031215610d2057600080fd5b6000610d2e84828501610cd0565b91505092915050565b6000610d438383610d5e565b60208301905092915050565b610d58816110f3565b82525050565b610d67816110e1565b82525050565b610d76816110e1565b82525050565b6000610d8782611051565b610d918185611069565b9350610d9c83611041565b8060005b83811015610dcd578151610db48882610d37565b9750610dbf8361105c565b925050600181019050610da0565b5085935050505092915050565b610de381611105565b82525050565b6000610df6602b8361107a565b9150610e018261116a565b604082019050919050565b6000610e19602d8361107a565b9150610e24826111b9565b604082019050919050565b6000610e3c60388361107a565b9150610e4782611208565b604082019050919050565b6000610e5f60258361107a565b9150610e6a82611257565b604082019050919050565b6000610e82601b8361107a565b9150610e8d826112a6565b602082019050919050565b6000610ea560188361107a565b9150610eb0826112cf565b602082019050919050565b610ec481611131565b82525050565b6000602082019050610edf6000830184610d6d565b92915050565b6000602082019050610efa6000830184610d4f565b92915050565b6000604082019050610f156000830185610d6d565b610f226020830184610ebb565b9392505050565b60006020820190508181036000830152610f438184610d7c565b905092915050565b6000602082019050610f606000830184610dda565b92915050565b60006020820190508181036000830152610f7f81610de9565b9050919050565b60006020820190508181036000830152610f9f81610e0c565b9050919050565b60006020820190508181036000830152610fbf81610e2f565b9050919050565b60006020820190508181036000830152610fdf81610e52565b9050919050565b60006020820190508181036000830152610fff81610e75565b9050919050565b6000602082019050818103600083015261101f81610e98565b9050919050565b600060208201905061103b6000830184610ebb565b92915050565b6000819050602082019050919050565b600081519050919050565b6000602082019050919050565b600082825260208201905092915050565b600082825260208201905092915050565b600061109682611131565b91506110a183611131565b9250827fffffffffffffffffffffffffffffffffffffffffffffffffffffffffffffffff038211156110d6576110d561113b565b5b828201905092915050565b60006110ec82611111565b9050919050565b60006110fe82611111565b9050919050565b60008115159050919050565b600073ffffffffffffffffffffffffffffffffffffffff82169050919050565b6000819050919050565b7f4e487b7100000000000000000000000000000000000000000000000000000000600052601160045260246000fd5b7f42656e65666963696172792063616e277420626964206f6e207468656972206f60008201527f776e2061756374696f6e2e000000000000000000000000000000000000000000602082015250565b7f596f752063616e2072617465206f6e6c7920696620796f75206861766520707260008201527f6576696f75736c79206269642e00000000000000000000000000000000000000602082015250565b7f596f752063616e2072617465206f6e6c792061756374696f6e7320746861742060008201527f68617665207375636365737366756c6c7920656e6465642e0000000000000000602082015250565b7f4f6e6c792062656e65666963696172792063616e20656e64207468652061756360008201527f74696f6e2e000000000000000000000000000000000000000000000000000000602082015250565b7f526174696e67206d7573742062652066726f6d203120746f20352e0000000000600082015250565b7f596f752063616e2774207261746520796f757273656c662e0000000000000000600082015250565b611301816110e1565b811461130c57600080fd5b50565b61131881611131565b811461132357600080fd5b5056fea2646970667358221220b64328247126d60e108047f6f640d097c51f48d83974582e7e6a5cbcd38f179164736f6c63430008040033",
  "linkReferences": {},
  "deployedLinkReferences": {}
}