{
  "_format": "hh-sol-artifact-1",
  "contractName": "Auction",
  "sourceName": "contracts/Auction.sol",
  "abi": [
    {
      "inputs": [
        {
          "internalType": "uint256",
          "name": "biddingTime",
          "type": "uint256"
        },
        {
          "internalType": "address payable",
          "name": "beneficiaryAddress",
          "type": "address"
        }
      ],
      "stateMutability": "nonpayable",
      "type": "constructor"
    },
    {
      "anonymous": false,
      "inputs": [
        {
          "indexed": false,
          "internalType": "address",
          "name": "winner",
          "type": "address"
        },
        {
          "indexed": false,
          "internalType": "uint256",
          "name": "amount",
          "type": "uint256"
        }
      ],
      "name": "AuctionEnded",
      "type": "event"
    },
    {
      "anonymous": false,
      "inputs": [
        {
          "indexed": false,
          "internalType": "address",
          "name": "bidder",
          "type": "address"
        },
        {
          "indexed": false,
          "internalType": "uint256",
          "name": "amount",
          "type": "uint256"
        }
      ],
      "name": "HighestBidIncreased",
      "type": "event"
    },
    {
      "inputs": [],
      "name": "auctionEnd",
      "outputs": [],
      "stateMutability": "nonpayable",
      "type": "function"
    },
    {
      "inputs": [],
      "name": "auctionEndTime",
      "outputs": [
        {
          "internalType": "uint256",
          "name": "",
          "type": "uint256"
        }
      ],
      "stateMutability": "view",
      "type": "function"
    },
    {
      "inputs": [],
      "name": "beneficiary",
      "outputs": [
        {
          "internalType": "address payable",
          "name": "",
          "type": "address"
        }
      ],
      "stateMutability": "view",
      "type": "function"
    },
    {
      "inputs": [],
      "name": "bid",
      "outputs": [],
      "stateMutability": "payable",
      "type": "function"
    },
    {
      "inputs": [],
      "name": "ended",
      "outputs": [
        {
          "internalType": "bool",
          "name": "",
          "type": "bool"
        }
      ],
      "stateMutability": "view",
      "type": "function"
    },
    {
      "inputs": [
        {
          "internalType": "address",
          "name": "bidder",
          "type": "address"
        }
      ],
      "name": "getPendingReturnForBidder",
      "outputs": [
        {
          "internalType": "uint256",
          "name": "",
          "type": "uint256"
        }
      ],
      "stateMutability": "view",
      "type": "function"
    },
    {
      "inputs": [],
      "name": "getRaters",
      "outputs": [
        {
          "internalType": "address[]",
          "name": "",
          "type": "address[]"
        }
      ],
      "stateMutability": "view",
      "type": "function"
    },
    {
      "inputs": [],
      "name": "highestBid",
      "outputs": [
        {
          "internalType": "uint256",
          "name": "",
          "type": "uint256"
        }
      ],
      "stateMutability": "view",
      "type": "function"
    },
    {
      "inputs": [],
      "name": "highestBidder",
      "outputs": [
        {
          "internalType": "address",
          "name": "",
          "type": "address"
        }
      ],
      "stateMutability": "view",
      "type": "function"
    },
    {
      "inputs": [
        {
          "internalType": "uint256",
          "name": "rating",
          "type": "uint256"
        }
      ],
      "name": "rate",
      "outputs": [],
      "stateMutability": "nonpayable",
      "type": "function"
    },
    {
      "inputs": [
        {
          "internalType": "uint256",
          "name": "",
          "type": "uint256"
        }
      ],
      "name": "raters",
      "outputs": [
        {
          "internalType": "address",
          "name": "",
          "type": "address"
        }
      ],
      "stateMutability": "view",
      "type": "function"
    },
    {
      "inputs": [
        {
          "internalType": "address",
          "name": "",
          "type": "address"
        }
      ],
      "name": "ratings",
      "outputs": [
        {
          "internalType": "uint256",
          "name": "",
          "type": "uint256"
        }
      ],
      "stateMutability": "view",
      "type": "function"
    },
    {
      "inputs": [],
      "name": "withdraw",
      "outputs": [
        {
          "internalType": "bool",
          "name": "",
          "type": "bool"
        }
      ],
      "stateMutability": "nonpayable",
      "type": "function"
    }
  ],
  "bytecode": "0x60806040523480156200001157600080fd5b5060405162001733380380620017338339818101604052810190620000379190620000c1565b806000806101000a81548173ffffffffffffffffffffffffffffffffffffffff021916908373ffffffffffffffffffffffffffffffffffffffff160217905550814262000085919062000102565b600381905550505062000200565b600081519050620000a481620001cc565b92915050565b600081519050620000bb81620001e6565b92915050565b60008060408385031215620000d557600080fd5b6000620000e585828601620000aa565b9250506020620000f88582860162000093565b9150509250929050565b60006200010f8262000193565b91506200011c8362000193565b9250827fffffffffffffffffffffffffffffffffffffffffffffffffffffffffffffffff038211156200015457620001536200019d565b5b828201905092915050565b60006200016c8262000173565b9050919050565b600073ffffffffffffffffffffffffffffffffffffffff82169050919050565b6000819050919050565b7f4e487b7100000000000000000000000000000000000000000000000000000000600052601160045260246000fd5b620001d7816200015f565b8114620001e357600080fd5b50565b620001f18162000193565b8114620001fd57600080fd5b50565b61152380620002106000396000f3fe6080604052600436106100c25760003560e01c80634b449cba1161007f5780639e01dfbb116100595780639e01dfbb14610239578063d57bde7914610276578063e7ee6ad6146102a1578063ef9973ba146102ca576100c2565b80634b449cba146101a65780638463b38b146101d157806391f901571461020e576100c2565b806312fa6feb146100c75780631998aeef146100f257806321805205146100fc5780632a24f46c1461013957806338af3eed146101505780633ccfd60b1461017b575b600080fd5b3480156100d357600080fd5b506100dc6102f5565b6040516100e99190610fee565b60405180910390f35b6100fa610308565b005b34801561010857600080fd5b50610123600480360381019061011e9190610cfc565b610528565b6040516101309190611149565b60405180910390f35b34801561014557600080fd5b5061014e610571565b005b34801561015c57600080fd5b50610165610777565b6040516101729190610f88565b60405180910390f35b34801561018757600080fd5b5061019061079b565b60405161019d9190610fee565b60405180910390f35b3480156101b257600080fd5b506101bb6108bf565b6040516101c89190611149565b60405180910390f35b3480156101dd57600080fd5b506101f860048036038101906101f39190610d25565b6108c5565b6040516102059190610f6d565b60405180910390f35b34801561021a57600080fd5b50610223610904565b6040516102309190610f6d565b60405180910390f35b34801561024557600080fd5b50610260600480360381019061025b9190610cfc565b61092a565b60405161026d9190611149565b60405180910390f35b34801561028257600080fd5b5061028b610942565b6040516102989190611149565b60405180910390f35b3480156102ad57600080fd5b506102c860048036038101906102c39190610d25565b610948565b005b3480156102d657600080fd5b506102df610c44565b6040516102ec9190610fcc565b60405180910390f35b600760009054906101000a900460ff1681565b60035442111561034d576040517f08c379a000000000000000000000000000000000000000000000000000000000815260040161034490611029565b60405180910390fd5b60008054906101000a900473ffffffffffffffffffffffffffffffffffffffff1673ffffffffffffffffffffffffffffffffffffffff163373ffffffffffffffffffffffffffffffffffffffff1614156103dc576040517f08c379a00000000000000000000000000000000000000000000000000000000081526004016103d390611069565b60405180910390fd5b6005543411610420576040517f08c379a0000000000000000000000000000000000000000000000000000000008152600401610417906110c9565b60405180910390fd5b6000600554146104a55760055460066000600460009054906101000a900473ffffffffffffffffffffffffffffffffffffffff1673ffffffffffffffffffffffffffffffffffffffff1673ffffffffffffffffffffffffffffffffffffffff168152602001908152602001600020600082825461049d91906111ae565b925050819055505b33600460006101000a81548173ffffffffffffffffffffffffffffffffffffffff021916908373ffffffffffffffffffffffffffffffffffffffff160217905550346005819055507ff4757a49b326036464bec6fe419a4ae38c8a02ce3e68bf0809674f6aab8ad300333460405161051e929190610fa3565b60405180910390a1565b6000600660008373ffffffffffffffffffffffffffffffffffffffff1673ffffffffffffffffffffffffffffffffffffffff168152602001908152602001600020549050919050565b6003544210156105b6576040517f08c379a00000000000000000000000000000000000000000000000000000000081526004016105ad90611049565b60405180910390fd5b600760009054906101000a900460ff1615610606576040517f08c379a00000000000000000000000000000000000000000000000000000000081526004016105fd90611009565b60405180910390fd5b3373ffffffffffffffffffffffffffffffffffffffff1660008054906101000a900473ffffffffffffffffffffffffffffffffffffffff1673ffffffffffffffffffffffffffffffffffffffff1614610694576040517f08c379a000000000000000000000000000000000000000000000000000000000815260040161068b906110e9565b60405180910390fd5b6001600760006101000a81548160ff0219169083151502179055507fdaec4582d5d9595688c8c98545fdd1c696d41c6aeaeb636737e84ed2f5c00eda600460009054906101000a900473ffffffffffffffffffffffffffffffffffffffff16600554604051610704929190610fa3565b60405180910390a160008054906101000a900473ffffffffffffffffffffffffffffffffffffffff1673ffffffffffffffffffffffffffffffffffffffff166108fc6005549081150290604051600060405180830381858888f19350505050158015610774573d6000803e3d6000fd5b50565b60008054906101000a900473ffffffffffffffffffffffffffffffffffffffff1681565b600080600660003373ffffffffffffffffffffffffffffffffffffffff1673ffffffffffffffffffffffffffffffffffffffff16815260200190815260200160002054905060008111156108b6576000600660003373ffffffffffffffffffffffffffffffffffffffff1673ffffffffffffffffffffffffffffffffffffffff168152602001908152602001600020819055503373ffffffffffffffffffffffffffffffffffffffff166108fc829081150290604051600060405180830381858888f193505050506108b55780600660003373ffffffffffffffffffffffffffffffffffffffff1673ffffffffffffffffffffffffffffffffffffffff1681526020019081526020016000208190555060009150506108bc565b5b60019150505b90565b60035481565b600281815481106108d557600080fd5b906000526020600020016000915054906101000a900473ffffffffffffffffffffffffffffffffffffffff1681565b600460009054906101000a900473ffffffffffffffffffffffffffffffffffffffff1681565b60016020528060005260406000206000915090505481565b60055481565b600081118015610959575060058111155b610998576040517f08c379a000000000000000000000000000000000000000000000000000000000815260040161098f90611109565b60405180910390fd5b6000600660003373ffffffffffffffffffffffffffffffffffffffff1673ffffffffffffffffffffffffffffffffffffffff16815260200190815260200160002054141580610a3457503373ffffffffffffffffffffffffffffffffffffffff16600460009054906101000a900473ffffffffffffffffffffffffffffffffffffffff1673ffffffffffffffffffffffffffffffffffffffff16145b610a73576040517f08c379a0000000000000000000000000000000000000000000000000000000008152600401610a6a90611089565b60405180910390fd5b3373ffffffffffffffffffffffffffffffffffffffff1660008054906101000a900473ffffffffffffffffffffffffffffffffffffffff1673ffffffffffffffffffffffffffffffffffffffff161415610b02576040517f08c379a0000000000000000000000000000000000000000000000000000000008152600401610af990611129565b60405180910390fd5b600760009054906101000a900460ff16610b51576040517f08c379a0000000000000000000000000000000000000000000000000000000008152600401610b48906110a9565b60405180910390fd5b6000600160003373ffffffffffffffffffffffffffffffffffffffff1673ffffffffffffffffffffffffffffffffffffffff168152602001908152602001600020541415610bfd576002339080600181540180825580915050600190039060005260206000200160009091909190916101000a81548173ffffffffffffffffffffffffffffffffffffffff021916908373ffffffffffffffffffffffffffffffffffffffff1602179055505b80600160003373ffffffffffffffffffffffffffffffffffffffff1673ffffffffffffffffffffffffffffffffffffffff1681526020019081526020016000208190555050565b60606002805480602002602001604051908101604052809291908181526020018280548015610cc857602002820191906000526020600020905b8160009054906101000a900473ffffffffffffffffffffffffffffffffffffffff1673ffffffffffffffffffffffffffffffffffffffff1681526020019060010190808311610c7e575b5050505050905090565b600081359050610ce1816114bf565b92915050565b600081359050610cf6816114d6565b92915050565b600060208284031215610d0e57600080fd5b6000610d1c84828501610cd2565b91505092915050565b600060208284031215610d3757600080fd5b6000610d4584828501610ce7565b91505092915050565b6000610d5a8383610d75565b60208301905092915050565b610d6f81611216565b82525050565b610d7e81611204565b82525050565b610d8d81611204565b82525050565b6000610d9e82611174565b610da8818561118c565b9350610db383611164565b8060005b83811015610de4578151610dcb8882610d4e565b9750610dd68361117f565b925050600181019050610db7565b5085935050505092915050565b610dfa81611228565b82525050565b6000610e0d601b8361119d565b9150610e188261128d565b602082019050919050565b6000610e3060168361119d565b9150610e3b826112b6565b602082019050919050565b6000610e5360168361119d565b9150610e5e826112df565b602082019050919050565b6000610e76602b8361119d565b9150610e8182611308565b604082019050919050565b6000610e99602d8361119d565b9150610ea482611357565b604082019050919050565b6000610ebc60388361119d565b9150610ec7826113a6565b604082019050919050565b6000610edf60148361119d565b9150610eea826113f5565b602082019050919050565b6000610f0260258361119d565b9150610f0d8261141e565b604082019050919050565b6000610f25601b8361119d565b9150610f308261146d565b602082019050919050565b6000610f4860188361119d565b9150610f5382611496565b602082019050919050565b610f6781611254565b82525050565b6000602082019050610f826000830184610d84565b92915050565b6000602082019050610f9d6000830184610d66565b92915050565b6000604082019050610fb86000830185610d84565b610fc56020830184610f5e565b9392505050565b60006020820190508181036000830152610fe68184610d93565b905092915050565b60006020820190506110036000830184610df1565b92915050565b6000602082019050818103600083015261102281610e00565b9050919050565b6000602082019050818103600083015261104281610e23565b9050919050565b6000602082019050818103600083015261106281610e46565b9050919050565b6000602082019050818103600083015261108281610e69565b9050919050565b600060208201905081810360008301526110a281610e8c565b9050919050565b600060208201905081810360008301526110c281610eaf565b9050919050565b600060208201905081810360008301526110e281610ed2565b9050919050565b6000602082019050818103600083015261110281610ef5565b9050919050565b6000602082019050818103600083015261112281610f18565b9050919050565b6000602082019050818103600083015261114281610f3b565b9050919050565b600060208201905061115e6000830184610f5e565b92915050565b6000819050602082019050919050565b600081519050919050565b6000602082019050919050565b600082825260208201905092915050565b600082825260208201905092915050565b60006111b982611254565b91506111c483611254565b9250827fffffffffffffffffffffffffffffffffffffffffffffffffffffffffffffffff038211156111f9576111f861125e565b5b828201905092915050565b600061120f82611234565b9050919050565b600061122182611234565b9050919050565b60008115159050919050565b600073ffffffffffffffffffffffffffffffffffffffff82169050919050565b6000819050919050565b7f4e487b7100000000000000000000000000000000000000000000000000000000600052601160045260246000fd5b7f41756374696f6e20656e6420616c72656164792063616c6c65642e0000000000600082015250565b7f41756374696f6e20616c726561647920656e6465642e00000000000000000000600082015250565b7f41756374696f6e206e6f742079657420656e6465642e00000000000000000000600082015250565b7f42656e65666963696172792063616e277420626964206f6e207468656972206f60008201527f776e2061756374696f6e2e000000000000000000000000000000000000000000602082015250565b7f596f752063616e2072617465206f6e6c7920696620796f75206861766520707260008201527f6576696f75736c79206269642e00000000000000000000000000000000000000602082015250565b7f596f752063616e2072617465206f6e6c792061756374696f6e7320746861742060008201527f68617665207375636365737366756c6c7920656e6465642e0000000000000000602082015250565b7f426964206e6f74206869676820656e6f7567682e000000000000000000000000600082015250565b7f4f6e6c792062656e65666963696172792063616e20656e64207468652061756360008201527f74696f6e2e000000000000000000000000000000000000000000000000000000602082015250565b7f526174696e67206d7573742062652066726f6d203120746f20352e0000000000600082015250565b7f596f752063616e2774207261746520796f757273656c662e0000000000000000600082015250565b6114c881611204565b81146114d357600080fd5b50565b6114df81611254565b81146114ea57600080fd5b5056fea26469706673582212203f97aafd9751e794fd8a243e1e6007e70f8253dc9f7245a75961ff649f400adc64736f6c63430008040033",
  "linkReferences": {},
  "deployedLinkReferences": {}
}